:100000000C9473000C949B000C949B000C949B002C
:100010000C949B000C949B000C949B000C949E09E8
:100020000C949B000C949B000C949B000C94520A23
:100030000C949B000C949B000C949B000C949B00D4
:100040000C9454090C949B000C94200A0C94FA090B
:100050000C949B000C949B000C949B000C949B00B4
:100060000C940E0B0C949B001F1C1F1E1F1E1F1FA9
:100070001E1F1E31373A32313A3436004D61792035
:1000800032362032303234000200000000240027D3
:10009000002A0000000000250028002B00000000BE
:1000A00000230026002900040404040404040402BC
:1000B0000202020202030303030303010204081005
:1000C00020408001020408102001020408102000D2
:1000D0000000080002010000030407000000000007
:1000E000000000005E0C11241FBECFEFD8E0DEBF81
:1000F000CDBF12E0A0E0B1E0EAEDF2E302C005906E
:100100000D92AE31B107D9F724E0AEE1B2E001C003
:100110001D92A735B207E1F710E0C3E7D0E004C0B5
:100120002197FE010E94D214C237D107C9F70E945D
:100130002E0D0C946B190C94000008950895CF9225
:10014000DF92EF92FF92DC01A03282E0B807D4F593
:10015000A53BB10514F0A4EBB0E04091D50328E82D
:1001600030E0241B310947FD3395220F331F220F46
:10017000331F6901330FEE08FF084091D60328E5CD
:1001800032E0241B310947FD3395220F331F220F24
:10019000331F032E000C440B550B2C193D094E093F
:1001A0005F09B7FF02C0B0E0A0E00E94421424EB58
:1001B00030E040E050E00E941814C20ED31EE41E4E
:1001C000F51ED601E091D403EC3080F52091D503E3
:1001D00088E890E0821B910927FD9395880F991F6D
:1001E000880F991FA817B90784F02091D60388E5D6
:1001F00092E0821B910927FD9395880F991F880F24
:10020000991FA817B9070CF4CD010297880F991F01
:100210004FB7F8942E2F30E0F901EE0FFF1FE20FD9
:10022000F31FE155FC4F928381834FBFFF90EF9006
:10023000DF90CF90089596E0899FD0011124A952B4
:10024000BC4F90967C936E935F9791E091969C93B0
:100250009197E0914404F0914504909143049923CF
:1002600039F0309751F0811108C08091F30309945F
:10027000309719F05C968C91FACF0895CF92DF9267
:10028000EF92FF920F931F9396E0899FF001112444
:10029000E952FC4F11A2278D30A12130310551F1D7
:1002A00078F02230310509F451C02330310509F4CA
:1002B00052C01F910F91FF90EF90DF90CF90089563
:1002C0006623B9F361E070E00E941B012FB7F89438
:1002D0008091840290918502A0918602B09187025C
:1002E0002FBF80932F0490933004A0933104B093D8
:1002F0003204DFCF9FB7F894C0908402D09085027B
:10030000E0908602F09087029FBF00912F04109129
:1003100030042091310430913204C01AD10AE20A2B
:10032000F30A009141041091420430E020E00C15E2
:100330001D052E053F0550F462E070E01F910F91FE
:10034000FF90EF90DF90CF900C941B016111B1CF23
:1003500063E070E0F3CF70E060E0F0CF833081F0D5
:1003600028F4813099F08230A9F008958730A9F0FF
:100370008830C9F08430B1F4809180008F7D03C053
:10038000809180008F7780938000089584B58F7767
:1003900084BD089584B58F7DFBCF8091B0008F77A9
:1003A0008093B00008958091B0008F7DF9CFCF93F6
:1003B000DF93282F30E0F901E153FF4F8491F901D9
:1003C000E554FF4FD491F901E955FF4FC491CC2377
:1003D000A1F081110E94AE01EC2FF0E0EE0FFF1FA3
:1003E000E356FF4FA591B491EC91ED2381E090E0AD
:1003F00009F480E0DF91CF91089580E090E0FACF9A
:100400001F93CF93DF93282F30E0F901E153FF4F83
:100410008491F901E554FF4FD491F901E955FF4F5B
:10042000C491CC23A9F0162F81110E94AE01EC2FAC
:10043000F0E0EE0FFF1FED56FF4FA591B4918FB77F
:10044000F894EC91111108C0D095DE23DC938FBF96
:10045000DF91CF911F910895DE2BF8CFCF93DF93DB
:1004600090E0FC01E554FF4F249189559F4FFC011A
:1004700084918823C9F090E0880F991FFC01E75709
:10048000FF4FA591B491FC01ED56FF4FC591D4915A
:1004900061110DC09FB7F8948C91209582238C93A5
:1004A0008881282328839FBFDF91CF9108956230F0
:1004B00051F49FB7F8943C91822F809583238C93BD
:1004C000E8812E2BEFCF8FB7F894EC912E2B2C9345
:1004D0008FBFEACF3FB7F89480918002909181025C
:1004E000A0918202B091830226B5A89B05C02F3F40
:1004F00019F00196A11DB11D3FBFBA2FA92F982F4A
:100500008827BC01CD01620F711D811D911D42E044
:10051000660F771F881F991F4A95D1F708958F920C
:100520009F92AF92BF92CF92DF92EF92FF924B01D8
:100530005C010E946A026B017C010E946A026C19D4
:100540007D098E099F09683E734081059105A8F3D6
:1005500021E0821A9108A108B10888EEC80E83E054
:10056000D81EE11CF11C81149104A104B10429F7E7
:10057000FF90EF90DF90CF90BF90AF909F908F90C3
:100580000895862F642F0C942E02862F642F0C94CE
:100590000002862F0C94D7019091000189130BC0A3
:1005A000E8E8F0E0E4919FEF90930001E13049F03A
:1005B00028F0E23061F060E00C94000210926E00CE
:1005C000FACF90916F009D7F90936F00F4CF909140
:1005D00070009D7F9093700091E09093B000909197
:1005E000B100987F94609093B1001092B300E3CF74
:1005F000AF92BF92CF92DF92EF92FF920F931F9331
:10060000CF93DF936C017B018B01040F151FEB016E
:100610005E01AE18BF08C017D10759F06991D60125
:10062000ED91FC910190F081E02DC6010995892B97
:1006300079F7C501DF91CF911F910F91FF90EF9056
:10064000DF90CF90BF90AF900895FC01538D448D03
:10065000252F30E0842F90E0821B930B541710F06D
:10066000CF96089501970895FC01918D828D98177A
:1006700061F0A28DAE0FBF2FB11D5D968C91928D52
:100680009F5F9F73928F90E008958FEF9FEF089583
:10069000FC01918D828D981731F0828DE80FF11D4C
:1006A000858D90E008958FEF9FEF0895FC01918D67
:1006B000228D892F90E0805C9F4F821B91098F7360
:1006C0009927089586E093E00E94560321E0892B44
:1006D00009F420E0822F089580E090E0892B29F032
:1006E0000E94620381110C9400000895FC01A48D06
:1006F000A80FB92FB11DA35ABF4F2C91848D90E044
:1007000001968F739927848FA689B7892C93A08926
:10071000B1898C91837080648C93938D848D9813B0
:1007200006C00288F389E02D80818F7D8083089543
:10073000EF92FF920F931F93CF93DF93EC0181E031
:10074000888F9B8D8C8D98131AC0E889F9898081D8
:1007500085FF15C09FB7F894EE89FF896083E8890B
:10076000F98980818370806480839FBF81E090E0FD
:10077000DF91CF911F910F91FF90EF900895F62E8A
:100780000B8D10E00F5F1F4F0F731127E02E8C8D24
:100790008E110CC00FB607FCFACFE889F989808169
:1007A00085FFF5CFCE010E947603F1CFEB8DEC0FE4
:1007B000FD2FF11DE35AFF4FF0829FB7F8940B8F86
:1007C000EA89FB8980818062CFCFCF93DF93EC01F0
:1007D000888D8823B9F0AA89BB89E889F9898C9129
:1007E00085FD03C0808186FD0DC00FB607FCF7CFE5
:1007F0008C9185FFF2CF808185FFEDCFCE010E94E5
:100800007603E9CFDF91CF910895089520913F02BB
:10081000260F3327331F21323105ECF42091DC02FF
:10082000FC0190E080E0243069F082E00895A0911E
:100830003F022191AC01415E5D4FA40FB52FB11D68
:100840002C930196861798F380913F02680F60936E
:100850003F0280E0089581E008951092DC0281E07B
:100860008093DB021092B60261E082E10E940002F6
:1008700061E083E10E940002E9EBF0E080818E7F7D
:10088000808380818D7F808388E48093B80085E4B5
:100890008093BC0008951092B5021092B402109299
:1008A000E302109205030E942D048DE990E09093DD
:1008B000B3028093B2028EE990E09093B1028093EC
:1008C000B0020895CF93DF9391E090931E028823A6
:1008D000B9F0C091B800D091BA008091BC008A7B79
:1008E0008093BC0060E082E10E94000260E083E14E
:1008F0000E9400020E942D04D093BA00C093B80059
:10090000DF91CF9108958F929F92AF92BF92CF9235
:10091000DF92EF92FF920F931F93CF93DF93D091CB
:100920000503D13208F0D7C0182FC09104030E94EC
:100930006A026B017C018091DC0281116BC082E054
:100940008093DC021093DB028FEF8093DA02109227
:10095000D902D093D802A4EEB2E0E8EBF2E080E056
:10096000D81391C01092B7028091B702CC0FC82B58
:10097000C093B7028091B602813009F088C010920E
:10098000B6020E946A026B017C018091B7028093DB
:10099000BB008091DE029091DF02A091E002B09155
:1009A000E102892B8A2B8B2BA1F00E946A02009115
:1009B000DE021091DF022091E0023091E1026C1919
:1009C0007D098E099F09061717072807390708F4BC
:1009D00042C08091BC0083FDD8CF85EC8093BC00E1
:1009E0000E946A026B017C018091DC02823009F472
:1009F00050C08091DA028F3F09F46FC08091DA0213
:100A0000803209F46CC08091DA02803309F469C045
:100A100084E026C08091DE029091DF02A091E00286
:100A2000B091E102892B8A2B8B2B09F484CF0E9491
:100A30006A028090DE029090DF02A090E002B09007
:100A4000E1026C197D098E099F0986169706A80692
:100A5000B90608F070CF8091DD020E94620485E043
:100A60001092E302109205031092E202DF91CF91FF
:100A70001F910F91FF90EF90DF90CF90BF90AF90BC
:100A80009F908F9008959D9191938F5F69CF85EE90
:100A9000A5CF8091DE029091DF02A091E002B0919B
:100AA000E102892B8A2B8B2B09F49ECF0E946A02CC
:100AB0000091DE021091DF022091E0023091E1020C
:100AC0006C197D098E099F09061717072807390732
:100AD00008F08ACFC0CF81E0C3CF80E0C1CF82E0F1
:100AE000BFCF83E0BDCFCF93DF93EC018B81882311
:100AF000A1F0888191E09093E20280930403109228
:100B0000E3021092050381E00E94830491E08111C9
:100B100090E0892FDF91CF9108950E944B0481E0EE
:100B20008B83CE010E947305982F8111E2CFF1CF04
:100B30000895E091B5028091B402E81730F4F0E036
:100B4000E057FD4F808190E008958FEF9FEF08956B
:100B50009091B5028091B4022FEF3FEF981748F4BF
:100B6000E92FF0E0E057FD4F208130E09F5F909348
:100B7000B502C90108958091B4029091B502891B14
:100B8000990B0895CF92DF92EF92FF920F931F93EC
:100B9000CF93DF937C01CB018A012091E2022223D3
:100BA00089F0EB016B01C40ED51ECC15DD0569F093
:100BB0006991D701ED91FC910190F081E02DC70181
:100BC0000995F3CF642F0E940604C801DF91CF91ED
:100BD0001F910F91FF90EF90DF90CF900895CF93EA
:100BE000DF931F92CDB7DEB769832091E202222303
:100BF000F9F020910503203258F021E030E0FC01AB
:100C00003383228390E080E00F90DF91CF910895AD
:100C10008091E302E82FF0E0EC51FD4F9981908341
:100C20008F5F8093E3028093050381E090E0ECCF37
:100C300061E0CE0101960E940604F7CFFC012481F9
:100C400031E03093E202209304031092E302109209
:100C500005038485682B83EA93E00E94EF0581E019
:100C60000C94830490E080E008951F93CF93DF936A
:100C7000DC011496ED91FC91E417F50710F490E077
:100C80001FC0122FEA01FC0181819281208131E095
:100C90003093E202209304031092E30210920503C2
:100CA000DC01ED91FC910280F381E02D0995C817DC
:100CB000D90729F7812F0E94830491E08111DFCFAA
:100CC000892FDF91CF911F9108952F923F924F92DC
:100CD0005F926F927F928F929F92AF92BF92CF92CC
:100CE000DF92EF92FF920F931F93CF93DF935C01FC
:100CF0001B016A01F12CE12CD50114968D919C9178
:100D000086010E191F098017910708F48C01F5015F
:100D1000D0810E946A022B013C018091DC0281118A
:100D200072C0C02F013208F0C0E2F1E0F093DC02A3
:100D300021E0C601801B910BE816F90608F420E0BB
:100D40002093DB028FEF8093DA021092D9028C0F8E
:100D50008093D802A1E0A093B7028091B702DD0F83
:100D6000D82BD093B7028091B602813009F090C0A1
:100D70001092B6020E946A022B013C018091B702D8
:100D80008093BB008091DE029091DF02A091E0028F
:100D9000B091E102892B8A2B8B2BA1F00E946A0271
:100DA0002091DE023091DF024091E0025091E10299
:100DB00064197509860997092617370748075907DF
:100DC00008F442C08091BC0083FDD8CFB5ECB0934D
:100DD000BC000E946A022B013C018091DC02813040
:100DE00009F45AC08091D9028C1710F4C091D9022D
:100DF000A8EBB2E0E0E9F2E080E08C1751F19D91C0
:100E000091938F5FFACF8091DE029091DF02A091E3
:100E1000E002B091E102892B8A2B8B2B09F47DCF64
:100E20000E946A022091DE023091DF024091E002CE
:100E30005091E10264197509860997092617370749
:100E40004807590708F069CF8091DD020E946204CB
:100E5000C0E01092B502C093B402C017110609F0A9
:100E600057C041018E0C9F1CE401CE0188199909DD
:100E70008017910798F5D50111968D919C91DC0111
:100E8000ED91FC910284F385E02D09958993EDCFD6
:100E9000E5EEE093BC009DCF8091DE029091DF02F1
:100EA000A091E002B091E102892B8A2B8B2B09F4EF
:100EB00094CF0E946A022091DE023091DF024091BD
:100EC000E0025091E1026419750986099709261715
:100ED00037074807590708F080CFB6CFE00EF11E5C
:100EE000EC14FD0408F408CF81E0DF91CF911F914D
:100EF0000F91FF90EF90DF90CF90BF90AF909F90B9
:100F00008F907F906F905F904F903F902F900895BB
:100F100080E0EBCF0F931F93CF938C01C62F0E94DD
:100F20001E066C2F6460C8010E941E066C2F6B7F2A
:100F3000C8010E941E0683EC90E00197F1F7CF9163
:100F40001F910F9108950F931F93CF93DF938C01FF
:100F5000D62FC42F607F642B0E948A0780E1D89F20
:100F6000B00111246C2BC801DF91CF911F910F911B
:100F70000C948A07CF93DF93CDB7DEB728970FB6CF
:100F8000F894DEBF0FBECDBF98E0E3E2F1E0DE01F2
:100F9000119601900D929A95E1F790914E04981751
:100FA00008F48FEF90E0880F991F21E030E02C0FBC
:100FB0003D1F820F931FFC016081606840E086E462
:100FC00094E028960FB6F894DEBF0FBECDBFDF9138
:100FD000CF910C94A30740E061E086E494E00E9486
:100FE000A3078BE39FE10197F1F780914F048823DA
:100FF00019F080E00C94BA07089541E00E94A3071D
:1010000081E090E00895CF93DF93EC018091880216
:1010100090918902009759F020918A0230918B02B9
:101020002C173D0720F081E0DF91CF910895BE019C
:101030006F5F7F4F0E94FD15009789F090938902A2
:1010400080938802D0938B02C0938A0220918C02F5
:1010500030918D02232B39F7FC011082E4CF80E020
:10106000E3CFFB0101900020E9F73197AF01461B68
:10107000570BDC01ED91FC910280F381E02D099486
:101080008F929F92AF92BF920F931F93CF93DF9354
:10109000CDB7DEB7A1970FB6F894DEBF0FBECDBFB8
:1010A00019A2423008F44AE08E010F5D1F4F842ED2
:1010B000912CB12CA12CA50194010E948114E62F42
:1010C000B901CA01EA3004F5E05DD801EE938D0163
:1010D000232B242B252B79F790E080E0109729F023
:1010E000BD0186E093E00E943108A1960FB6F89406
:1010F000DEBF0FBECDBFDF91CF911F910F91BF908B
:10110000AF909F908F900895E95CDFCFCF92DF92F0
:10111000EF92FF92CF93DF936B017C016DE286E04B
:1011200093E00E949803EC0166277727CB016C19A6
:101130007D098E099F094AE00E9440088C0F9D1F7F
:10114000DF91CF91FF90EF90DF90CF900895CF93F4
:10115000DF93BC01990F880B990B97FF0EC00E947B
:101160008608EC0165E671E086E093E00E943108B4
:101170008C0F9D1FDF91CF9108954AE00E94400897
:10118000F0CFCF93DF93BC0186E093E00E9431085B
:10119000EC0165E671E086E093E00E9431088C0F77
:1011A0009D1FDF91CF9108956115710511F00C9489
:1011B000310890E080E008950F931F93CF93DF9361
:1011C0008C01EB0180E00E94BA07B80186E494E04C
:1011D0000E94D40881E00E94BA07BE0186E494E030
:1011E000DF91CF911F910F910C94D40890E080E093
:1011F0000E9403082091880230918902811113C056
:101200002115310519F0C9010E9474151092890247
:101210001092880210928D0210928C0210928B0212
:1012200010928A02089510928D0210928C0267E645
:1012300071E0C9010C94C31685ED8093BC008091C8
:10124000DE029091DF02A091E002B091E1020796E8
:10125000A11DB11D23E0B695A795979587952A9571
:10126000D1F72091BC0024FD03C01092DC02089548
:101270004091DE025091DF026091E0027091E10244
:10128000452B462B472B69F30097A105B10541F08B
:101290002AE22A95F1F700C00197A109B109E1CF2F
:1012A0008091DD020C9462041F920F920FB60F9290
:1012B00011242F933F938F939F93AF93BF9380916C
:1012C000840290918502A0918602B09187023091AC
:1012D0007F0223E0230F2D3758F50196A11DB11D84
:1012E00020937F028093840290938502A0938602CC
:1012F000B09387028091800290918102A091820236
:10130000B09183020196A11DB11D8093800290933C
:101310008102A0938202B0938302BF91AF919F910B
:101320008F913F912F910F900FBE0F901F901895A6
:1013300026E8230F0296A11DB11DD2CF1F920F9256
:101340000FB60F9211242F933F934F935F936F9398
:101350007F938F939F93AF93BF93EF93FF9380916E
:10136000720290917302A0917402B0917502892B60
:101370008A2B8B2BD1F190916D02E0916E02F0914E
:101380006F0280818927808380917202909173021D
:10139000A0917402B0917502181619061A061B0660
:1013A0009CF48091720290917302A0917402B091AA
:1013B00075020197A109B10980937202909373029B
:1013C000A0937402B0937502FF91EF91BF91AF911A
:1013D0009F918F917F916F915F914F913F912F914D
:1013E0000F900FBE0F901F901895809100010E94E2
:1013F000CC02EACF1F920F920FB60F9211242F93B7
:101400003F934F935F936F937F938F939F93AF938C
:10141000BF93EF93FF9386E093E00E947603FF91E2
:10142000EF91BF91AF919F918F917F916F915F915C
:101430004F913F912F910F900FBE0F901F901895D5
:101440001F920F920FB60F9211242F938F939F9399
:10145000EF93FF93E0911603F09117038081E091E1
:101460001C03F0911D0382FD1BC0908180911F031E
:101470008F5F8F7320912003821741F0E0911F034B
:10148000F0E0EA5FFC4F958F80931F03FF91EF918F
:101490009F918F912F910F900FBE0F901F901895D5
:1014A0008081F4CF1F920F920FB60F9211242F93C9
:1014B0003F934F935F936F937F938F939F93AF93DC
:1014C000BF93CF93DF93EF93FF9380916202C0911C
:1014D000D303D0E087FF24C01092850010928400CF
:1014E000809162028F5F8093620280916202082E77
:1014F000000C990B8C179D0724F4809162028C30AC
:10150000C4F18091840090918500049680349C49B8
:1015100008F47AC08091840090918500049676C08A
:1015200080916202082E000C990B8C179D07C4F65F
:10153000E09162028E2FEE0F990BFC01EE0FFF1F60
:10154000E80FF91FE155FC4F808186FFC9CFE0917C
:1015500062028E2FEE0F990BFC01EE0FFF1FE80FBA
:10156000F91FE155FC4F808160E08F730E940002FB
:10157000B7CF2091840030918500E09162028E2FD8
:10158000EE0F990BFC01EE0FFF1FE80FF91FE1555D
:10159000FC4F81819281820F931F909389008093E9
:1015A0008800E09162028E2FEE0F990BFC01EE0F86
:1015B000FF1FE80FF91FE155FC4F808186FF11C026
:1015C000E09162028E2FEE0F990BFC01EE0FFF1FD0
:1015D000E80FF91FE155FC4F808161E08F730E9495
:1015E0000002FF91EF91DF91CF91BF91AF919F9159
:1015F0008F917F916F915F914F913F912F910F90BC
:101600000FBE0F901F90189580E49CE9909389007D
:10161000809388008FEF80936202E3CF1F920F9236
:101620000FB60F9211242F933F934F935F936F93B5
:101630007F938F939F93AF93BF93EF93FF9380918B
:10164000B900887F803609F44AC0F0F5883209F481
:10165000A7C018F5803109F49BC0B8F4882309F4B9
:10166000F9C0883009F494C0FF91EF91BF91AF9118
:101670009F918F917F916F915F914F913F912F91AA
:101680000F900FBE0F901F901895883109F488C0F5
:10169000803251F78093DA0214C0803409F49DC07F
:1016A00040F48033B9F38833F9F68093DA0285EC9D
:1016B000B0C0803509F485C0883509F496C08834F7
:1016C00099F60E941C09D0CF883909F48CC038F5EE
:1016D000883729F050F4883611F0803729F683E0F6
:1016E0008093DC021092610257C0883809F47BC0F5
:1016F000803919F0803809F0B7CF809161028032CB
:1017000008F071C0E091610281E08E0F8093610268
:101710008091BB00F0E0EF5BFD4F80833DC0803BDC
:1017200039F0E0F4803A09F479C0883A09F09CCFA6
:1017300084E08093DC021092400210923F02E0911C
:10174000B202F091B302099580913F0281110FC05E
:1017500081E080933F0210921F0209C0803C09F48F
:10176000A6CF883C09F4A3CF883B09F07DCFE09158
:10177000400281E08E0F80934002F0E0E15EFD4F79
:1017800080818093BB009091400280913F0229C0EC
:101790008091B7028093BB0085EC8093BC0064CF3E
:1017A0009091D9028091D802981758F5E091D9020A
:1017B00081E08E0F8093D902F0E0E854FD4F8081E4
:1017C000E9CFE091D90281E08E0F8093D902809118
:1017D000BB00F0E0E854FD4F80839091D9028091E6
:1017E000D8029817C8F285E8D8CFE091D90281E0F5
:1017F0008E0F8093D9028091BB00F0E0E854FD4F3A
:1018000080838091DB0281115CCF81E08093B602FE
:1018100084EA8093BC001092DC0226CF85EC809392
:10182000BC001092DC0280916102803230F4E091C1
:101830006102F0E0EF5BFD4F10826091610270E0A9
:10184000E091B002F091B10281E492E0099510922A
:1018500061020ACF1092DA0234CFFC0190819053DA
:101860009A3008F090E0818180532AE0929F800DA9
:1018700011240895CF93DF9300D0CDB7DEB78FE06A
:101880008A8321E041E050E0BE016E5F7F4F80918E
:101890008E0290918F020E94350641E050E0BE0119
:1018A0006F5F7F4F80918E0290918F020E9465063C
:1018B00089810F900F90DF91CF91089510920903C5
:1018C0001092080388EE93E0A0E0B0E080930A0352
:1018D00090930B03A0930C03B0930D032FE231E020
:1018E000309307032093060325EC30E03093130375
:1018F0002093120324EC30E030931503209314035B
:1019000020EC30E0309317032093160321EC30E0F5
:10191000309319032093180322EC30E030931B031B
:1019200020931A0326EC30E030931D0320931C0310
:1019300010921F0310922003109221031092220391
:101940001092A6031092A5038093A7039093A80377
:10195000A093A903B093AA0381E491E09093A40318
:101960008093A3031092D9031092DD031092DC033D
:101970001092DE0383E591E09093D8038093D70320
:10198000E3EFF3E01082148213821582369684E02E
:10199000EF32F807B9F789E091E090933A04809329
:1019A000390485E091E090933C0480933B0484E00B
:1019B00080933D0480933E048DE091E09093380441
:1019C000809337048AE090E09093400480933F0432
:1019D00084EF91E090934204809341041092450477
:1019E000109244041092330410923404109235047F
:1019F00010923604109243048091D3038C3050F53A
:101A000091E0980F9093D3038093D40390E0FC016E
:101A1000EE0FFF1FE80FF91FE155FC4F88EB9BE02D
:101A20009283818310924904109248048DE591E0DD
:101A3000909347048093460410924F0487E280936A
:101A40004A0480E18093500482E080935104109214
:101A5000520408958FEF8093D403E4CFCF93DF93A4
:101A6000CDB7DEB7A0970FB6F894DEBF0FBECDBFDF
:101A7000789484B5826084BD84B5816084BD85B569
:101A8000826085BD85B5816085BD80916E00816075
:101A900080936E001092810080918100826080931B
:101AA000810080918100816080938100809180001D
:101AB0008160809380008091B10084608093B10048
:101AC0008091B00081608093B00080917A00846042
:101AD00080937A0080917A00826080937A0080916E
:101AE0007A00816080937A0080917A008068809388
:101AF0007A001092C100E0911603F091170382E082
:101B00008083E0911203F09113031082E09114039B
:101B1000F09115038FEC808310921E03E0911A035D
:101B2000F0911B0386E08083E0911803F091190384
:101B3000808180618083E0911803F0911903808196
:101B400088608083E0911803F09119038081806898
:101B50008083E0911803F091190380818F7D808349
:101B60000E944B0410924B0480915104823018F073
:101B700098E090934B0480934E0462E370E080E021
:101B800090E00E948F026091520486E494E00E94EB
:101B90001E0668EE73E080E090E00E948F0260E332
:101BA00086E494E00E948A076BE4E62E66E4F62E53
:101BB000C7010197F1F760E386E494E00E948A0789
:101BC000C7010197F1F760E386E494E00E948A0779
:101BD00083E592E00197F1F760E286E494E00E94E9
:101BE0008A0760914B04606240E086E494E00E94C2
:101BF000A30784E080934C0440E06CE086E494E02A
:101C00000E94A3070E94EB0782E080934D0440E00E
:101C100066E086E494E00E94A30740E062E086E488
:101C200094E00E94A3078BE39FE10197F1F788E01E
:101C30008093520460E086E494E00E941E060E94B5
:101C4000EB0780918E0290918F02009711F00E9415
:101C5000741586E090E00E94D8147C0188E6F701B4
:101C6000808383EA93E092838183138280E290E011
:101C700095838483F0928F02E0928E020E944B043F
:101C800081E0F7018383C7010E947305882309F46B
:101C900035C00E943A0C90E0880F892F881F990B5D
:101CA000892B09F4F9C04BE050E06CE770E0CE01FD
:101CB00001960E94FA13CE010A960E942D0C082F5D
:101CC000E981E154E33140F50E2E000CFF0BE5599C
:101CD000F14F0C94D214D50E8C0E8C0EE90E8C0E96
:101CE000EB0E8C0E8C0E8C0E830E8C0E8C0EDC0E7E
:101CF000E70EE50E8C0E8C0E8C0EE30E88E691E05E
:101D00000E94C108FBCF8A8111E0813629F08B81C6
:101D100016E08E3609F017E0CE0105960E942D0CD4
:101D2000F82E48E050E063E770E0CE0101960E9493
:101D3000FA13CE0101960E942D0CE82ECE010496D6
:101D40000E942D0CD82ECE0107960E942D0C382F04
:101D50001A8219822AE0622F0E94B214982F880FEB
:101D6000890F880F830F8A838D2D0E94B214982FBC
:101D7000880F890F880F8D0D8B838E2D0E94B214D2
:101D8000982F880F890F880F8E0D8C83602F70E03D
:101D90002F2D30E0E8E6F0E081E08117F0F4949137
:101DA000290F311D8F5F3196F8CF8B8114E0823778
:101DB00009F4B2CF18E0B0CF8B8113E0823709F479
:101DC000ABCF15E0A9CF19E0A7CF1AE0A5CF1BE054
:101DD000A3CF1CE0A1CF12E09FCF133028F0802FBB
:101DE000837011F42F5F3F4FCB0103969695879533
:101DF00096958795EDE6F1E06E9FA0016F9F500DDF
:101E00007E9F500D11244B5F5F4F840F951F820FF3
:101E1000931F67E070E00E94BE14811101C087E04B
:101E20008D832AE08F2D622F0E94B214982F880F85
:101E3000890F880F8F0D8E83812F0E94B214982FE7
:101E4000990F890F880F180F1F83802F0E94B214DB
:101E5000982F880F890F880F800F888721E048E02E
:101E600050E0BE016F5F7F4F80918E0290918F0294
:101E70000E9435060E943A0C9FE0998B8F778A8BDF
:101E800021E042E050E0BE016F5E7F4F80918E0204
:101E900090918F020E9435068091D4038C3008F017
:101EA00051C061E08CE00E942E028091D403282F63
:101EB00030E0F901EE0FFF1FE20FF31FE155FC4F79
:101EC0009081907C9C6090831092D5031092D603F1
:101ED0002CE0622F0E94B214829FB001112430E0E6
:101EE00020E0AB01420F531FFA01EE0FFF1FE40F7A
:101EF000F51FE155FC4F908196FD16C02F5F3F4FB7
:101F00002C30310571F781110FC01092800082E0F2
:101F1000809381001092850010928400B19A809184
:101F20006F00826080936F00E091D4038E2F90E069
:101F3000FC01EE0FFF1FE80FF91FE155FC4F8081F8
:101F40008064808390E080E00E949F0060E08DE0EC
:101F50000E942E0261E08EE00E942E0244244A94E8
:101F6000542C32018DE00E94D701019709F037C24D
:101F70008091650281112BC0109289021092880213
:101F800010928B0210928A0210928D0210928C0293
:101F900090E080E00E94030820918802309189023D
:101FA00081114EC02115310519F0C9010E94741527
:101FB000109289021092880210928D0210928C0267
:101FC00010928B0210928A0281E080936502222493
:101FD0002394312CF1E0F09343048FB7F8944091AF
:101FE00084025091850260918602709187028FBFB2
:101FF0008091330490913404A0913504B09136045B
:10200000481B590B6A0B7B0B80913F049091400455
:10201000B0E0A0E084179507A607B707D8F610E050
:1020200080913D041817B0F4E0913904F0913A041E
:10203000E10FF11D62E080810E942E021F5FF0CF50
:1020400010928D0210928C0267E671E0C9010E9425
:10205000C316BACF912C80913E04981608F063C045
:10206000E92CF12CE0913B04F0913C04EE0DFF1DB6
:1020700061E080810E942E02E0913B04F0913C04DB
:10208000EE0DFF1D60E080810E94000281E090E083
:10209000A0E0B0E0092C04C0880F991FAA1FBB1F45
:1020A0000A94D2F75C016C01C094D094812C809189
:1020B0003D04881608F5082D10E0E0913904F091F0
:1020C0003A04E00FF11F80810E94D7010C5F1F4F7F
:1020D000000F111FF801E952FC4F892B41F4808158
:1020E00091818A299B29918380838394E0CF808189
:1020F00091818C219D21F7CFE0913B04F0913C042C
:10210000EE0DFF1D61E080810E94000280913B0482
:1021100090913C04E80EF91E60E0F70180810E9476
:102120002E02939498CFB7EDEB2EB3E0FB2E8701F0
:10213000F801878D90A1892B31F4148E8FEF9FEFDA
:10214000968F858F11A20A5F1F4FE3E1F4E0E0173D
:10215000F10771F7D12C80913D04D81608F053C0D7
:10216000C12CAD2CB12CAA0CBB1CC50181529C4FBB
:102170005C0120913E04C21608F043C0F501608165
:1021800071810C2C02C0769567950A94E2F7D29E75
:10219000900111242C0D311DE7EDF3E080E0458D19
:1021A000568D2417350709F4FCC28F5F36968A30A6
:1021B000B1F760FF24C0E7EDF3E090E080E0448DEC
:1021C000411118C0E0913704F0913804E20FF31F79
:1021D000408156E0589FF001599FF00D1124E952BB
:1021E000FC4F448F368F258F10A2178E61E00E941E
:1021F0003E0105C0019636968A30910501F7C394D9
:10220000B8CFD394A8CF80E0F70191A19111892F85
:10221000F6E0EF0EF11C0E151F05B1F79FB7F8940D
:1022200040918402509185026091860270918702EC
:102230009FBF4093330450933404609335047093EC
:102240003604882309F4C6CE8091F803882309F464
:10225000C1CE8091F6039091F703019709F0BACEB1
:102260008091F303882309F4B5CE90ED980F9A304E
:1022700008F041C089831A8200918C0210918D026E
:102280000F5F1F4FC8010E940308882399F0209117
:1022900088023091890280918C0290918D02BE015A
:1022A0006F5F7F4F820F931F0E94C31610938D02A2
:1022B00000938C026AE771E0809188029091890214
:1022C0000E94DC086DE871E086E093E00E94D4088B
:1022D00040918C0250918D02609188027091890228
:1022E00086E093E00E94F80265E671E086E093E004
:1022F0000E9431086FCE813481F580916302909104
:102300006402892B09F066CE80918802909189023F
:102310000097F9F00E94D3137093040160930301B6
:102320000E94F608309264022092630267E671E030
:1023300085E991E00E94DC086EE971E086E093E0B7
:102340000E94D40880910301909104010E94A70883
:1023500041CE60E070E0CB01DFCF823409F03ACEAD
:102360008091630290916402019709F033CE8091CD
:10237000880290918902009771F10E94D3137093A3
:102380000201609301010E94F60881E080937E02C1
:10239000109264021092630267E671E089EA91E0AC
:1023A0000E94DC0864EB71E086E093E00E94D408B0
:1023B00080910101909102010E94A70880E090E0C5
:1023C000892B09F4CFCD0E946203882309F4CACD7A
:1023D0000E940000C7CD60E070E0CB01D0CF198231
:1023E000E0908E02F0908F0220E041E050E08E01FC
:1023F0000F5F1F4FB801C7010E943506882331F0D7
:1024000047E050E0B801C7010E94650629812F7797
:10241000822F90E034E0959587953A95E1F7982FD3
:10242000990F990F982E991A990C920E8A814B81C7
:102430003D809E81892EE89487F82F80282F30E0F8
:1024400054E0359527955A95E1F7922F990F990FFA
:10245000291B220F280FC22ED12C842F90E064E07C
:10246000959587956A95E1F7982F990F990F891B94
:10247000880F840FA82EB12C1F929F921F922F932A
:102480001F928F9381EC91E09F938F937E0151E196
:10249000E50EF11CFF92EF920E94CA16822D90E089
:1024A00074E0959587957A95E1F7982F990F990F94
:1024B000891B880F280E822D90E08053984F9F93A0
:1024C0008F93882D90E0E4E095958795EA95E1F764
:1024D000982F990F990F891B880F880E1F928F9242
:1024E000832D90E0F4E095958795FA95E1F7982F84
:1024F000990F990F891B880F380E1F923F9280ED1C
:1025000091E09F938F931F930F930E94CA16B80177
:10251000C7010E94DC0862EF71E086E093E00E9450
:10252000D408C7010E94C1086FED71E086E093E016
:102530000E94D408C8010E94C1080FB6F894DEBFFB
:102540000FBECDBF80917E02882309F456C066EE8F
:1025500071E086E093E00E94D408609103017091DD
:102560000401072E000C880B990B97FF4DC00E94A9
:10257000860869EF71E086E093E00E94D4088091BC
:102580000101909102010E94A7088091030190919E
:102590000401A816B90689F5809101019091020104
:1025A000C816D90651F5911028C08BEF91E00E9412
:1025B000C1088AE590E00E949F00809100018E3062
:1025C00039F5E8E8F0E0149117FF52C064EF71E0CC
:1025D00080E090E00E948F028EE00E94CC0260EDCD
:1025E00077E080E090E00E948F0290E080E00E941F
:1025F0009F008EE092E00E94C10868EE73E080E0E8
:1026000090E00E948F02DACE4AE00E944008B1CFEB
:102610008F3FE1F68EE080930001E8E8F0E014914E
:102620001F3FA1F2113009F444C050F0123009F4F8
:102630005EC017FDCBCF61E08EE00E942E021FC06E
:1026400014BC15BC84B5826084BD85B5816085BD30
:10265000E5EBF0E0E491F0E0EE0FFF1FED56FF4FE9
:1026600085919491E9ECF0E0E491E093710210E03F
:1026700061E08EE00E942E02112309F45AC012304C
:1026800009F06BC08091B100887F83608093B100B6
:1026900089EF8093B300409272025092730260926D
:1026A0007402709275028091700082608093700055
:1026B0008DCF1092800010928100809181008860FF
:1026C0008093810080918100816080938100E5EB9F
:1026D000F0E0E491F0E0EE0FFF1FED56FF4F859123
:1026E0009491E9ECF0E0E491E0937002C1CF109294
:1026F000B0001092B1008091B00082608093B00071
:102700008091B10081608093B100E5EBF0E0E4914D
:10271000F0E0EE0FFF1FED56FF4F859194919093DF
:102720006F0280936E02E9ECF0E0E491E0936D02B9
:102730009FCF85B5887F836085BD8CE787BD40923C
:102740007A0250927B0260927C0270927D028091AC
:102750006E00826080936E0039CF1130D1F4809189
:102760008100887F8160809381008FE39FE1909357
:10277000890080938800409276025092770260929E
:1027800078027092790280916F00826080936F006E
:102790001DCF123021F0111119CF8FE3CFCF8FE36E
:1027A00078CF617024CD1F93FC0199278827BC0145
:1027B000E89411911032E9F3193010F01E30C8F38B
:1027C0001B3251F01D3249F4689406C00E94031474
:1027D000610F711D811D911D119110531A30B0F3BD
:1027E0003EF490958095709561957F4F8F4F9F4FE8
:1027F0001F910895FB01DC0102C005900D9241502C
:102800005040D8F70895592F482F372F262F660F9D
:10281000771F881F991F660F771F881F991F620FE8
:10282000731F841F951F660F771F881F991F0895B8
:10283000052E97FB1EF400940E942F1457FD07D01D
:102840000E94811407FC03D04EF40C942F14509571
:102850004095309521953F4F4F4F5F4F089590958C
:102860008095709561957F4F8F4F9F4F08950E947F
:10287000A314A59F900DB49F900DA49F800D911D52
:1028800011240895B7FF0C9437140E943714821B4B
:10289000930B08952F923F924F925F926F927F9287
:1028A0008F929F92AF92BF92CF92DF92EF92FF9260
:1028B0000F931F93CF93DF93CDB7DEB7CA1BDB0B0C
:1028C0000FB6F894DEBF0FBECDBF09942A883988B1
:1028D00048885F846E847D848C849B84AA84B984B8
:1028E000C884DF80EE80FD800C811B81AA81B981C4
:1028F000CE0FD11D0FB6F894DEBF0FBECDBFED01D8
:102900000895A1E21A2EAA1BBB1BFD010DC0AA1F30
:10291000BB1FEE1FFF1FA217B307E407F50720F048
:10292000A21BB30BE40BF50B661F771F881F991FC3
:102930001A9469F760957095809590959B01AC010C
:10294000BD01CF010895A29FB001B39FC001A39F15
:10295000700D811D1124911DB29F700D811D1124D8
:10296000911D0895991B79E004C0991F961708F0EE
:10297000961B881F7A95C9F780950895AA1BBB1BE3
:1029800051E107C0AA1FBB1FA617B70710F0A61B6F
:10299000B70B881F991F5A95A9F780959095BC0190
:1029A000CD010895EE0FFF1F0590F491E02D0994DD
:1029B0000F931F93CF93DF938230910510F482E041
:1029C00090E0E0915504F091560430E020E0B0E052
:1029D000A0E0309799F42115310509F44AC0281B6D
:1029E000390B24303105D8F58A819B816115710539
:1029F00089F1FB0193838283FE0111C040815181E3
:102A00000281138148175907E0F04817590799F4D4
:102A1000109761F012960C93129713961C933296AE
:102A2000CF01DF91CF911F910F910895009355042D
:102A300010935604F4CF2115310551F04217530776
:102A400038F0A901DB019A01BD01DF01F801C1CF16
:102A5000EF01F9CF9093560480935504CDCFFE013A
:102A6000E20FF31F81939193225031093983288318
:102A7000D7CF2091530430915404232B41F420915B
:102A80001F0130912001309354042093530420916E
:102A90001D0130911E012115310541F42DB73EB7BE
:102AA0004091210150912201241B350BE0915304E8
:102AB000F0915404E217F307A0F42E1B3F0B2817E4
:102AC000390778F0AC014E5F5F4F2417350748F0A7
:102AD0004E0F5F1F5093540440935304819391937E
:102AE0009FCFF0E0E0E09CCFCF93DF930097E9F039
:102AF000FC01329713821282A0915504B0915604C2
:102B0000ED0130E020E01097A1F420813181820FA7
:102B1000931F20915304309154042817390709F06A
:102B200061C0F0935404E0935304DF91CF91089572
:102B3000EA01CE17DF07E8F54A815B819E01411566
:102B40005105B1F7E901FB83EA8349915991C40F1B
:102B5000D51FEC17FD0761F4808191810296840FE7
:102B6000951FE90199838883828193819B838A835E
:102B7000F0E0E0E012968D919C9113970097B9F5E3
:102B80002D913C911197CD010296820F931F2091B8
:102B90005304309154042817390739F6309751F50A
:102BA0001092560410925504B0935404A093530409
:102BB000BCCFD383C28340815181840F951FC81736
:102BC000D90761F44E5F5F4F88819981480F591F83
:102BD000518340838A819B819383828321153105B0
:102BE00009F0B0CFF0935604E09355049ECFFD0159
:102BF000DC01C0CF13821282D7CFB0E0A0E0E3E0C7
:102C0000F6E10C944C148C01009751F4CB010E9416
:102C1000D8148C01C801CDB7DEB7E0E10C9468147C
:102C2000FC01E60FF71F9C0122503109E217F30760
:102C300008F49DC0D901CD91DC911197C617D70733
:102C400098F0C530D10530F3CE0104978617970769
:102C500008F3C61BD70B2297C193D1936D937C9336
:102C6000CF010E947415D6CF5B01AC1ABD0A4C018E
:102C70008C0E9D1EA0915504B0915604512C412CF0
:102C8000F12CE12C109731F580915304909154046C
:102C90008815990509F05CC04616570608F058C01B
:102CA00080911D0190911E01009741F48DB79EB750
:102CB0004091210150912201841B950BE817F907DF
:102CC00008F055C0F0935404E0935304F901718364
:102CD0006083A0CF8D919C91119712966C90129762
:102CE00013967C901397A815B90559F56C0142E02D
:102CF000C40ED11CCA14DB0420F1AC014A195B09D3
:102D0000DA011296159780F06282738251834083B4
:102D1000D9016D937C93E114F10471F0D7011396FE
:102D2000FC93EE93129776CF22968C0F9D1FF9019C
:102D300091838083F301EFCFF0935604E093550421
:102D400069CF4816590608F42C017D01D3019ACFAA
:102D5000CB010E94D8147C01009749F0AE01B80164
:102D60000E94BA16C8010E947415870153CF10E063
:102D700000E050CFFB01DC0102C001900D924150F8
:102D80005040D8F70895FB01DC0101900D9200201E
:102D9000E1F70895AEE0B0E0E0EDF6E10C945814F0
:102DA0000D891E8986E08C831A8309838FEF9FE744
:102DB0009E838D83AE01475E5F4F6F89788DCE0114
:102DC00001960E94ED162F813885020F131FF8011E
:102DD00010822E96E4E00C947414ABE0B0E0E3EFC4
:102DE000F6E10C944A147C013B018A01FC01178234
:102DF0001682838181FFC8C1CE0101965C01F70173
:102E00009381F30193FD859193FF81913F01882385
:102E100009F453C1853239F493FD859193FF819173
:102E20003F01853229F4B70190E00E94DD18E7CF19
:102E3000912C212C312CFFE1F31538F08B3211F15C
:102E400090F4803209F1833229F137FC3CC020ED47
:102E5000280F2A3050F536FE20C08AE0989E200DBB
:102E60001124922E06C08D3291F0803371F7689450
:102E700030F8F30193FD859193FF81913F0181111A
:102E8000DACF21C0689431F8689432F8F2CF6894B0
:102E900033F8EFCF689434F8ECCFEAE02E9E200DA3
:102EA0001124222E689435F8E4CF8E3229F436FCB2
:102EB00004C1689436F8DDCF8C3619F4689437F87D
:102EC000D8CF8836B1F2982F9F7D95549330E0F09B
:102ED0008336A1F18337C1F1833509F063C028013E
:102EE000F2E04F0E511CF801C080D180692D70E0D6
:102EF00036FC02C06FEF7FEFC6010E94C7184C017D
:102F0000689437F882010AC00C5F1F4FFFE3F98312
:102F100088248394912C6501E89437F833FE2DC002
:102F2000522C8114910471F5552009F468CFB70132
:102F300080E290E00E94DD185A94F6CFF80180817B
:102F400089830E5F1F4FE4CF2801F2E04F0E511C22
:102F5000F801C080D180692D70E036FC02C06FEFAF
:102F60007FEFC6010E94D2184C018201D5CFB70174
:102F700080E290E00E94DD182A942814190409F0D8
:102F8000B0F7CECFF60137FC859137FE81916F0106
:102F9000B70190E00E94DD1851105A94F1E08F1AA9
:102FA0009108BFCF843619F0893609F077C0F8014F
:102FB00037FE6BC060817181828193810C5F1F4FEE
:102FC000F32DFF763F2E97FF09C090958095709561
:102FD00061957F4F8F4F9F4F689437F82AE030E01C
:102FE000A5010E940D19C82ECA188C2C432C36FE40
:102FF0000CC0E89440F8C91440F434FE05C032FC1B
:1030000003C0F32DFE7E4F2E892C44FE95C0FE0199
:10301000EC0DF11D8081803309F087C0242D297EBD
:10302000422E842D8870582E43FC95C040FE8FC0E0
:103030009C2C821418F42C0C922C981844FE91C0ED
:10304000B70180E390E00E94DD1842FE09C088E7E6
:1030500090E041FE02C088E590E0B7010E94DD18D3
:10306000C91408F48AC0CA94D12C9FEFC91AD90A8E
:10307000CA0CDB1CF60182916F01B70190E00E943F
:10308000DD18AC14BD04B1F74FCF60817181072EFC
:10309000000C880B990B0E5F1F4F92CFD32CE89436
:1030A000D4F82AE030E0853739F1232D297FD22E5C
:1030B0008F3601F148F48835A9F0F70186819781B0
:1030C0002B96E2E10C946614803749F08837A9F713
:1030D000D4FE02C06894D2F820E130E00DC06894BC
:1030E000D4F8F6CF34FE03C0822F8660D82E20E1BC
:1030F00032E002C028E030E0F801D7FE0FC0608166
:103100007181828193810C5F1F4FA5010E940D196F
:10311000C82ECA183D2CE89437F867CF60817181BA
:1031200090E080E00E5F1F4FF0CF42FC02C083941E
:1031300078CF8394839475CF842D867809F471CFEA
:10314000F6CFB70180E290E00E94DD1883948214EC
:10315000C0F3512C73CF522C5818821408F46ECF40
:10316000F8CF842D867809F47BCF8BE241FE80E294
:1031700047FC8DE2B70190E071CFB70180E390E0AA
:103180000E94DD189A946CCF8FEF9FEF99CFFC01CE
:103190000590615070400110D8F7809590958E0F82
:1031A0009F1F0895FC016150704001900110D8F7F5
:1031B000809590958E0F9F1F08950F931F93CF9327
:1031C000DF93182F092FEB018B8181FD09C01FEFC1
:1031D0000FEF812F902FDF91CF911F910F910895C5
:1031E00082FF14C02E813F818C819D812817390771
:1031F0003CF4E881F981CF0101969983888310839B
:103200008E819F8101969F838E83E3CFE885F98528
:10321000812F0995892BA1F3DACFFA01AA2728304B
:1032200051F1203181F1E8946F936E7F6E5F7F4F93
:103230008F4F9F4FAF4FB1E03ED0B4E03CD0670F0F
:10324000781F891F9A1FA11D680F791F8A1F911D62
:10325000A11D6A0F711D811D911DA11D20D009F4B2
:1032600068943F912AE0269F11243019305D3193F4
:10327000DEF6CF010895462F4770405D4193B3E0DD
:103280000FD0C9F7F6CF462F4F70405D4A3318F084
:10329000495D31FD4052419302D0A9F7EACFB4E035
:1032A000A6959795879577956795BA95C9F70097ED
:1032B0006105710508959B01AC010A2E069457958E
:1032C000479537952795BA95C9F7620F731F841FE5
:0A32D000951FA01D0895F894FFCF8C
:1032DA00FFFFFFFFFF08090A0B0405060731323317
:1032EA004134353642373839432A302344000057AF
:1032FA000480000000400014005400000000009800
:10330A0003F8022503E503560334034803000000CB
:10331A0000EF05C20532069805BB05A80599050008
:10332A00000000C102C502C90200000000FD07F842
:10333A0002320605040D0A00436F756C646E277429
:10334A002066696E642052544300456E746572208B
:10335A0066656564696E672074696D6500496E709B
:10336A0075743A2000486F75722073657400486F4F
:10337A007572207365743A20004D696E7574652004
:10338A00736574004D696E757465207365743A20AF
:10339A0000253032643A253032643A2530326400EE
:1033AA00253032642F253032642F253034640044AE
:1033BA006174653A20005365742046656564696ED8
:1033CA00672054696D653A20003A004761746520A8
:1033DA006973206F70656E696E672E2E2E004761C5
:0E33EA00746520697320636C6F7365642E0038
:00000001FF
