:100000000C9473000C949B000C949B000C949B002C
:100010000C949B000C949B000C949B000C94EE0C95
:100020000C949B000C949B000C949B000C94A20DD0
:100030000C949B000C949B000C949B000C949B00D4
:100040000C94A40C0C949B000C94700D0C944A0D11
:100050000C949B000C949B000C949B000C949B00B4
:100060000C945E0E0C949B000230333A35303A35D6
:1000700030004D61792032372032303234000000B8
:100080000000240027002A000000000025002800AE
:100090002B000000000023002600290004040404B3
:1000A0000404040402020202020203030303030322
:1000B00001020408102040800102040810200102FF
:1000C00004081020000000080002010000030407DB
:1000D00000000000000000001F1C1F1E1F1E1F1F2D
:1000E0001E1F1E00AE0F11241FBECFEFD8E0DEBFD3
:1000F000CDBF12E0A0E0B1E0E6E1FDE302C0059073
:100100000D92AC35B107D9F724E0ACE5B2E001C0FF
:100110001D92A93AB207E1F710E0C3E7D0E004C0AE
:100120002197FE010E94D118C237D107C9F70E945A
:10013000B7100C94891E0C94000008950895E5E40E
:10014000F3E0A089B18982E08C93A485B5851C92E7
:10015000A685B7858FEC8C93108EA489B58986E02F
:100160008C93A289B3898C9180618C93A289B38985
:100170008C9188608C93A289B3898C9180688C93D0
:100180000288F389E02D80818F7D80830895CF924E
:10019000DF92EF92FF92DC01A03282E0B807D4F543
:1001A000A53BB10514F0A4EBB0E040911A0428E897
:1001B00030E0241B310947FD3395220F331F220FF6
:1001C000331F6901330FEE08FF0840911B0428E537
:1001D00032E0241B310947FD3395220F331F220FD4
:1001E000331F032E000C440B550B2C193D094E09EF
:1001F0005F09B7FF02C0B0E0A0E00E94411824EB05
:1002000030E040E050E00E941718C20ED31EE41EFA
:10021000F51ED601E0911904EC3080F520911A0406
:1002200088E890E0821B910927FD9395880F991F1C
:10023000880F991FA817B90784F020911B0488E53F
:1002400092E0821B910927FD9395880F991F880FD3
:10025000991FA817B9070CF4CD010297880F991FB1
:100260004FB7F8942E2F30E0F901EE0FFF1FE20F89
:10027000F31FE251FC4F928381834FBFFF90EF90B9
:10028000DF90CF90089596E0899FD0011124A45E5D
:10029000BB4F90967C936E935F9791E091969C9361
:1002A0009197E0918904F0918A04909188049923B0
:1002B00039F0309751F0811108C0809138040994C9
:1002C000309719F05C968C91FACF0895CF92DF9217
:1002D000EF92FF920F931F9396E0899FF0011124F4
:1002E000E45EFB4F11A2278D30A12130310551F181
:1002F00078F02230310509F451C02330310509F47A
:1003000052C01F910F91FF90EF90DF90CF90089512
:100310006623B9F361E070E00E9443012FB7F894BF
:100320008091C3029091C402A091C502B091C6020F
:100330002FBF8093740490937504A0937604B093B8
:100340007704DFCF9FB7F894C090C302D090C40267
:10035000E090C502F090C6029FBF00917404109116
:1003600075042091760430917704C01AD10AE20A0C
:10037000F30A009186041091870430E020E00C1508
:100380001D052E053F0550F462E070E01F910F91AE
:10039000FF90EF90DF90CF900C9443016111B1CFAB
:1003A00063E070E0F3CF70E060E0F0CF833081F085
:1003B00028F4813099F08230A9F008958730A9F0AF
:1003C0008830C9F08430B1F4809180008F7D03C003
:1003D000809180008F7780938000089584B58F7717
:1003E00084BD089584B58F7DFBCF8091B0008F7759
:1003F0008093B00008958091B0008F7DF9CFCF93A6
:10040000DF93282F30E0F901EC53FF4F8491F9017D
:10041000E055FF4FD491F901E456FF4FC491CC232E
:10042000A1F081110E94D601EC2FF0E0EE0FFF1F2A
:10043000EE56FF4FA591B491EC91ED2381E090E051
:1004400009F480E0DF91CF91089580E090E0FACF49
:100450001F93CF93DF93282F30E0F901EC53FF4F28
:100460008491F901E055FF4FD491F901E456FF4F13
:10047000C491CC23A9F0162F81110E94D601EC2F34
:10048000F0E0EE0FFF1FE857FF4FA591B4918FB733
:10049000F894EC91111108C0D095DE23DC938FBF46
:1004A000DF91CF911F910895DE2BF8CFCF93DF938B
:1004B00090E0FC01E055FF4F249184569F4FFC01D2
:1004C00084918823C9F090E0880F991FFC01E258BD
:1004D000FF4FA591B491FC01E857FF4FC591D4910E
:1004E00061110DC09FB7F8948C91209582238C9355
:1004F0008881282328839FBFDF91CF9108956230A0
:1005000051F49FB7F8943C91822F809583238C936C
:10051000E8812E2BEFCF8FB7F894EC912E2B2C93F4
:100520008FBFEACF3FB7F8948091BF029091C0028D
:10053000A091C102B091C20226B5A89B05C02F3F71
:1005400019F00196A11DB11D3FBFBA2FA92F982FF9
:100550008827BC01CD01620F711D811D911D42E0F4
:10056000660F771F881F991F4A95D1F708958F92BC
:100570009F92AF92BF92CF92DF92EF92FF926B0168
:100580007C010E9492024B015C01C114D104E10480
:10059000F104B9F00E949202681979098A099B094D
:1005A000683E73408105910580F321E0C21AD108AD
:1005B000E108F10888EE880E83E0981EA11CB11CAA
:1005C000E4CFFF90EF90DF90CF90BF90AF909F90DF
:1005D0008F900895862F642F0C945602862F642FD7
:1005E0000C942802862F0C94FF019091000189132E
:1005F0000BC0E8E6F0E0E4919FEF90930001E1305A
:1006000049F028F0E23061F060E00C94280210928A
:100610006E00FACF90916F009D7F90936F00F4CFA2
:10062000909170009D7F9093700091E09093B00046
:100630009091B100987F94609093B1001092B300B4
:10064000E3CFAF92BF92CF92DF92EF92FF920F93E0
:100650001F93CF93DF936C017B018B01040F151F58
:10066000EB015E01AE18BF08C017D10759F06991C0
:10067000D601ED91FC910190F081E02DC601099524
:10068000892B79F7C501DF91CF911F910F91FF90D1
:10069000EF90DF90CF90BF90AF900895FC01538D05
:1006A000448D252F30E0842F90E0821B930B54174C
:1006B00010F0CF96089501970895FC01918D828DD9
:1006C000981761F0A28DAE0FBF2FB11D5D968C9172
:1006D000928D9F5F9F73928F90E008958FEF9FEFB1
:1006E0000895FC01918D828D981731F0828DE80F6D
:1006F000F11D858D90E008958FEF9FEF0895FC0127
:10070000918D228D892F90E0805C9F4F821B9109F3
:100710008F739927089585E493E00E947F0321E079
:10072000892B09F420E0822F089580E090E0892B46
:1007300029F00E948B0381110C9400000895FC01A4
:10074000A48DA80FB92FB11DA35ABF4F2C91848D32
:1007500090E001968F739927848FA689B7892C938F
:10076000A089B1898C91837080648C93938D848DE2
:10077000981306C00288F389E02D80818F7D8083E5
:100780000895EF92FF920F931F93CF93DF93EC01A5
:1007900081E0888F9B8D8C8D98131AC0E889F98928
:1007A000808185FF15C09FB7F894EE89FF8960832B
:1007B000E889F98980818370806480839FBF81E0AC
:1007C00090E0DF91CF911F910F91FF90EF900895EE
:1007D000F62E0B8D10E00F5F1F4F0F731127E02EC9
:1007E0008C8D8E110CC00FB607FCFACFE889F98901
:1007F000808185FFF5CFCE010E949F03F1CFEB8D65
:10080000EC0FFD2FF11DE35AFF4FF0829FB7F894D4
:100810000B8FEA89FB8980818062CFCFCF93DF93F2
:10082000EC01888D8823B9F0AA89BB89E889F98908
:100830008C9185FD03C0808186FD0DC00FB607FC3D
:10084000F7CF8C9185FFF2CF808185FFEDCFCE0170
:100850000E949F03E9CFDF91CF910895DC0150E022
:10086000E8EDF0E081E0861730F49491490F511DD6
:100870008F5F3196F8CF633038F0CD0183709927C0
:10088000892B11F44F5F5F4F9D012D5F3F4F3695D0
:100890002795369527956DE671E0A69FC001A79F25
:1008A000900DB69F900D11240197820F931F840F16
:1008B000951F0895EF92FF920F931F93CF93DF93AD
:1008C000EC0188814A81698190E00E942E049C019C
:1008D000A8E1B0E00E94A2182B817B018C01E20EFE
:1008E000F11C011D111DA8019701ACE3B0E00E94AD
:1008F00036182C817B018C01E20EF11C011D111DAB
:10090000A80197010E943618AB01BC019D81892F77
:1009100090E0B0E0A0E080589C4BA249B74C8A011F
:100920009B01080F191F2A1F3B1FC901B801DF9146
:10093000CF911F910F91FF90EF9008950895089522
:1009400020918702260F3327331F21323105ECF423
:1009500020911B03FC0190E080E0243069F082E0EC
:100960000895A09187022191AC0149595D4FA40FD0
:10097000B52FB11D2C930196861798F380918702AD
:10098000680F6093870280E0089581E008951092D7
:100990001B0381E080931A031092F50261E082E16B
:1009A0000E94280261E083E10E942802E9EBF0E066
:1009B00080818E7F808380818D7F808388E4809397
:1009C000B80085E48093BC0008951092F402109260
:1009D000F30210922203109244030E94C7048DE98F
:1009E00090E09093F2028093F1028EE990E0909370
:1009F000F0028093EF020895CF93DF9391E09093FC
:100A000066028823B9F0C091B800D091BA008091F5
:100A1000BC008A7B8093BC0060E082E10E942802D7
:100A200060E083E10E9428020E94C704D093BA00CC
:100A3000C093B800DF91CF9108958F929F92AF92AB
:100A4000BF92CF92DF92EF92FF920F931F93CF93BB
:100A5000DF93D0914403D13208F0D7C0182FC09152
:100A600043030E9492026B017C0180911B03811160
:100A70006BC082E080931B0310931A038FEF809367
:100A8000190310921803D0931703A3E2B3E0E7EF22
:100A9000F2E080E0D81391C01092F6028091F60245
:100AA000CC0FC82BC093F6028091F502813009F07B
:100AB00088C01092F5020E9492026B017C01809125
:100AC000F6028093BB0080911D0390911E03A091BC
:100AD0001F03B0912003892B8A2B8B2BA1F00E943E
:100AE000920200911D0310911E0320911F0330916B
:100AF00020036C197D098E099F090617170728071F
:100B0000390708F442C08091BC0083FDD8CF85EC42
:100B10008093BC000E9492026B017C0180911B03B8
:100B2000823009F450C0809119038F3F09F46FC0DF
:100B300080911903803209F46CC0809119038033CD
:100B400009F469C084E026C080911D0390911E03C2
:100B5000A0911F03B0912003892B8A2B8B2B09F4C2
:100B600084CF0E94920280901D0390901E03A0905B
:100B70001F03B09020036C197D098E099F0986160A
:100B80009706A806B90608F070CF80911C030E9452
:100B9000FC0485E01092220310924403109221037A
:100BA000DF91CF911F910F91FF90EF90DF90CF9049
:100BB000BF90AF909F908F9008959D9191938F5F7C
:100BC00069CF85EEA5CF80911D0390911E03A09162
:100BD0001F03B0912003892B8A2B8B2B09F49ECF06
:100BE0000E94920200911D0310911E0320911F0389
:100BF000309120036C197D098E099F09061717078C
:100C00002807390708F08ACFC0CF81E0C3CF80E042
:100C1000C1CF82E0BFCF83E0BDCFCF93DF93EC01A4
:100C20008B818823A1F0888191E0909321038093A8
:100C30004303109222031092440381E00E941D0599
:100C400091E0811190E0892FDF91CF9108950E946A
:100C5000E50481E08B83CE010E940D06982F81115F
:100C6000E2CFF1CF0895E091F4028091F302E8170A
:100C700030F4F0E0E153FD4F808190E008958FEF74
:100C80009FEF08959091F4028091F3022FEF3FEFD0
:100C9000981748F4E92FF0E0E153FD4F208130E050
:100CA0009F5F9093F402C90108958091F30290919F
:100CB000F402891B990B0895CF92DF92EF92FF9275
:100CC0000F931F93CF93DF937C01CB018A01209177
:100CD0002103222389F0EB016B01C40ED51ECC1534
:100CE000DD0569F06991D701ED91FC910190F081EA
:100CF000E02DC7010995F3CF642F0E94A004C8011D
:100D0000DF91CF911F910F91FF90EF90DF90CF90E7
:100D10000895CF93DF931F92CDB7DEB769832091FB
:100D200021032223F9F020914403203258F021E0DE
:100D300030E0FC013383228390E080E00F90DF916C
:100D4000CF91089580912203E82FF0E0ED5DFC4FF4
:100D5000998190838F5F809322038093440381E085
:100D600090E0ECCF61E0CE0101960E94A004F7CFA5
:100D7000FC01248131E0309321032093430310923E
:100D80002203109244038485682B82EE93E00E9434
:100D9000890681E00C941D0590E080E00895FF92A3
:100DA0000F931F93CF93DF93F82E062FC7E0D0E069
:100DB00010E061E0802F0E9428028F2D0E94FF0129
:100DC0000C2E01C0880F0A94EAF7182B60E0802FE0
:100DD0000E942802219768F7812FDF91CF911F9100
:100DE0000F91FF900895EF92FF920F931F93CF936F
:100DF000DF9380918E040E94FF01892B31F060E027
:100E000070E0CB010E94B702F4CFDFB7F894609195
:100E10008D0480918E040E94CF06082F60918D046E
:100E200080918E040E94CF06C82F60918D0480911E
:100E30008E040E94CF06182FF12CE12C80918F0494
:100E40008E151F0479F070F061E080918D040E948E
:100E5000280260E080918D040E9428028FEFE81A3A
:100E6000F80AECCFDFBF6C2F70E090E080E0982FA5
:100E7000872F762F6627802B612B000F000B10E049
:100E800030E020E0302F222711270027602B712B24
:100E9000822B932BDF91CF911F910F91FF90EF90B9
:100EA00008951F93CF93DF93DC011496ED91FC918D
:100EB000E417F50710F490E01FC0122FEA01FC01BF
:100EC00081819281208131E030932103209343037B
:100ED0001092220310924403DC01ED91FC910280F8
:100EE000F381E02D0995C817D90729F7812F0E94B2
:100EF0001D0591E08111DFCF892FDF91CF911F91E7
:100F000008952F923F924F925F926F927F928F92AD
:100F10009F92AF92BF92CF92DF92EF92FF920F9388
:100F20001F93CF93DF935C011B016A01F12CE12C2D
:100F3000D50114968D919C9186010E191F09801779
:100F4000910708F48C01F501D0810E9492022B01D7
:100F50003C0180911B03811172C0C02F013208F047
:100F6000C0E2F1E0F0931B0321E0C601801B910B6E
:100F7000E816F90608F420E020931A038FEF809317
:100F80001903109218038C0F80931703A1E0A0930C
:100F9000F6028091F602DD0FD82BD093F6028091F5
:100FA000F502813009F090C01092F5020E94920281
:100FB0002B013C018091F6028093BB0080911D03C0
:100FC00090911E03A0911F03B0912003892B8A2BBF
:100FD0008B2BA1F00E94920220911D0330911E03E1
:100FE00040911F03509120036419750986099709E0
:100FF000261737074807590708F442C08091BC00FC
:1010000083FDD8CFB5ECB093BC000E9492022B01B7
:101010003C0180911B03813009F45AC08091180370
:101020008C1710F4C0911803A7EFB2E0EFECF2E0D8
:1010300080E08C1751F19D9191938F5FFACF809151
:101040001D0390911E03A0911F03B0912003892BD3
:101050008A2B8B2B09F47DCF0E94920220911D03D5
:1010600030911E0340911F035091200364197509AC
:1010700086099709261737074807590708F069CFE7
:1010800080911C030E94FC04C0E01092F402C09303
:10109000F302C017110609F057C041018E0C9F1CC6
:1010A000E401CE01881999098017910798F5D501B7
:1010B00011968D919C91DC01ED91FC910284F38558
:1010C000E02D09958993EDCFE5EEE093BC009DCF2F
:1010D00080911D0390911E03A0911F03B0912003E6
:1010E000892B8A2B8B2B09F494CF0E94920220919A
:1010F0001D0330911E0340911F035091200364197A
:10110000750986099709261737074807590708F010
:1011100080CFB6CFE00EF11EEC14FD0408F408CF2A
:1011200081E0DF91CF911F910F91FF90EF90DF90C1
:10113000CF90BF90AF909F908F907F906F905F9077
:101140004F903F902F90089580E0EBCF0F931F9327
:10115000CF938C01C62F0E94B8066C2F6460C80123
:101160000E94B8066C2F6B7FC8010E94B80683EC02
:1011700090E00197F1F7CF911F910F9108950F9390
:101180001F93CF93DF938C01D62FC42F607F642BE6
:101190000E94A60880E1D89FB00111246C2BC801E1
:1011A000DF91CF911F910F910C94A608CF93DF93FD
:1011B000CDB7DEB728970FB6F894DEBF0FBECDBF10
:1011C00098E0E3E2F1E0DE01119601900D929A952C
:1011D000E1F79091A004981708F48FEF90E0880F42
:1011E000991F21E030E02C0F3D1F820F931FFC015F
:1011F0006081606840E088E994E028960FB6F89432
:10120000DEBF0FBECDBFDF91CF910C94BF0840E091
:1012100061E088E994E00E94BF088BE39FE10197B9
:10122000F1F78091A104882319F080E00C94D6088E
:10123000089541E00E94BF0881E090E00895CF93B7
:10124000DF93EC018091C7029091C802009759F09A
:101250002091C9023091CA022C173D0720F081E08D
:10126000DF91CF910895BE016F5F7F4F0E941B1BDE
:10127000009789F09093C8028093C702D093CA0266
:10128000C093C9022091CB023091CC02232B39F7B5
:10129000FC011082E4CF80E0E3CFFB01019000204D
:1012A000E9F73197AF01461B570BDC01ED91FC913B
:1012B0000280F381E02D09948F929F92AF92BF92AA
:1012C0000F931F93CF93DF93CDB7DEB7A1970FB6E0
:1012D000F894DEBF0FBECDBF19A2423008F44AE039
:1012E0008E010F5D1F4F842E912CB12CA12CA501D6
:1012F00094010E948018E62FB901CA01EA3004F572
:10130000E05DD801EE938D01232B242B252B79F75B
:1013100090E080E0109729F0BD0185E493E00E9401
:101320004D09A1960FB6F894DEBF0FBECDBFDF9179
:10133000CF911F910F91BF90AF909F908F90089584
:10134000E95CDFCFCF92DF92EF92FF92CF93DF93F2
:101350006B017C016DE285E493E00E94C103EC0126
:1013600066277727CB016C197D098E099F094AE012
:101370000E945C098C0F9D1FDF91CF91FF90EF9031
:10138000DF90CF900895CF93DF93BC01990F880B26
:10139000990B97FF0EC00E94A209EC016DE671E067
:1013A00085E493E00E944D098C0F9D1FDF91CF9142
:1013B00008954AE00E945C09F0CFCF93DF93BC010F
:1013C00085E493E00E944D09EC016DE671E085E44F
:1013D00093E00E944D098C0F9D1FDF91CF910895DE
:1013E0006115710511F00C944D0990E080E00895AD
:1013F0000F931F93CF93DF938C01EB010E9407099A
:1014000080E00E94D608B80188E994E00E94F009C3
:1014100081E00E94D608BE0188E994E0DF91CF9177
:101420001F910F910C94F00990E080E00E941F0939
:101430002091C7023091C802811113C021153105D6
:1014400019F0C9010E94921A1092C8021092C702A4
:101450001092CC021092CB021092CA021092C902D2
:1014600008951092CC021092CB026FE671E0C90190
:101470000C94E11B0C94921A4F925F926F927F92A0
:101480008F929F92AF92BF92CF92DF92EF92FF9294
:101490000F931F93CF93DF93CDB7DEB760970FB64F
:1014A000F894DEBF0FBECDBF8AE590E00E94C70072
:1014B000809100018E3009F4C2C08F3F09F4E8C06A
:1014C00064EF71E080E090E00E94B7028EE00E943D
:1014D000F50264EF71E080E090E00E94B7021AE04C
:1014E000C12CD12C76010E94F306C60ED71EE81E31
:1014F000F91E60E070E0CB010E94B702115099F72D
:10150000C701B6012AE030E040E050E00E94171821
:101510008091900490919104A0919204B0919304D1
:1015200079018A01E81AF90A0A0B1B0BC801B701F5
:101530000E94FA16209194043091950440919604EB
:10154000509197040E9444196B017C0160E771E09F
:1015500085E493E00E94F009A7019601C701B60156
:101560000E94F11969E771E081111BC04601570122
:10157000E894B7F82FEF3FEF4FE75FE7C501B401FD
:101580000E94F119811131C12FEF3FEF4FE75FE763
:10159000C501B4010E94F31618160CF026C16DE7C0
:1015A00071E085E493E00E944D0981E991E00E9499
:1015B000DD09FF92EF92DF92CF9285E891E09F9351
:1015C0008F938E010F5F1F4F1F930F930E94E81B95
:1015D000B80185E991E00E94F80968EE73E080E0C7
:1015E00090E00E94B70262EA71E085E991E00E9412
:1015F000F80960ED77E080E090E00E94B70290E0AB
:1016000080E00E94C7000FB6F894DEBF0FBECDBFCA
:1016100060960FB6F894DEBF0FBECDBFDF91CF91BD
:101620001F910F91FF90EF90DF90CF90BF90AF9000
:101630009F908F907F906F905F904F900895E8E615
:10164000F0E0149117FD3CCF61E08EE00E9456025D
:10165000112309F48CC0123009F0A0C08091B100B0
:10166000887F83608093B10089EF8093B3008FEF10
:101670009FEFDC018093AE029093AF02A093B00283
:10168000B093B1028091700082608093700018CF97
:101690008EE080930001E8E6F0E014911F3F09F42A
:1016A0000FCF113021F150F0123009F43EC017FD78
:1016B00007CF61E08EE00E945602CDCF14BC15BC6E
:1016C00084B5826084BD85B5816085BDEAEAF0E0BD
:1016D000E491F0E0EE0FFF1FE857FF4F85919491E2
:1016E000EEEBF0E0E491E0935D0210E0ADCF1092FC
:1016F0008000109281008091810088608093810039
:1017000080918100816080938100EAEAF0E0E491B9
:10171000F0E0EE0FFF1FE857FF4F85919491EEEB3D
:10172000F0E0E491E0935C028FCF1092B000109251
:10173000B1008091B00082608093B0008091B100D0
:1017400081608093B100EAEAF0E0E491F0E0EE0F0E
:10175000FF1FE857FF4F859194919093AC028093BF
:10176000AB02EEEBF0E0E491E093AD026DCF85B516
:10177000887F836085BD8CE787BD8FEF9FEFDC019D
:101780008093620290936302A0936402B093650217
:1017900080916E00826080936E0092CE1130E9F4E9
:1017A00080918100887F8160809381008FE39FE139
:1017B00090938900809388008FEF9FEFDC018093E6
:1017C0005E0290935F02A0936002B09361028091E9
:1017D0006F00826080936F0073CE123021F0111180
:1017E0006FCE8FE3C9CF8FE340CF2FEF3FEF4FE7AF
:1017F0005FE4C701B6010E94EC1918161CF461E8F9
:1018000071E0CFCE2FEF3FEF4FE75FECC701B6019E
:101810000E94F31687FDF3CF20E030E0A901C70155
:10182000B6010E94F31687FF54C06DE285E493E091
:101830000E94C103C701B60190582AE037ED43EA80
:101840005BE30E94D8182B013C010E94BD194B019B
:101850005C010E94F8169B01AC01C301B2010E9419
:10186000D7182B013C014AE0C501B4010E945C0974
:101870006EE285E493E00E94C10320E030E040E2A4
:1018800051E4C301B2010E9459172B013C010E948F
:10189000BD194B01B12CA12C4AE0C501B4010E9435
:1018A0005C09C501B4010E94F8169B01AC01C3019B
:1018B000B2010E94D71820E030E040E251E40E94DB
:1018C00059170E94BD1990E080E04AE00E945C092F
:1018D0006CCEC701B601B1CF85ED8093BC0080917D
:1018E0001D0390911E03A0911F03B0912003079642
:1018F000A11DB11D23E0B695A795979587952A95CB
:10190000D1F72091BC0024FD03C010921B03089561
:1019100040911D0350911E0360911F03709120039D
:10192000452B462B472B69F30097A105B10541F0E4
:101930002AE22A95F1F700C00197A109B109E1CF88
:1019400080911C030C94FC041F920F920FB60F920F
:1019500011242F933F938F939F93AF93BF938091C5
:10196000C3029091C402A091C502B091C602309109
:10197000BE0223E0230F2D3758F50196A11DB11D9E
:101980002093BE028093C3029093C402A093C50229
:10199000B093C6028091BF029091C002A091C10293
:1019A000B091C2020196A11DB11D8093BF02909318
:1019B000C002A093C102B093C202BF91AF919F91A8
:1019C0008F913F912F910F900FBE0F901F90189500
:1019D00026E8230F0296A11DB11DD2CF1F920F92B0
:1019E0000FB60F9211242F933F934F935F936F93F2
:1019F0007F938F939F93AF93BF93EF93FF938091C8
:101A0000AE029091AF02A091B002B091B102892BC9
:101A10008A2B8B2BD1F19091AD02E091AB02F0912A
:101A2000AC028081892780838091AE029091AF02C1
:101A3000A091B002B091B102181619061A061B0641
:101A40009CF48091AE029091AF02A091B002B0914F
:101A5000B1020197A109B1098093AE029093AF0240
:101A6000A093B002B093B102FF91EF91BF91AF91FB
:101A70009F918F917F916F915F914F913F912F91A6
:101A80000F900FBE0F901F901895809100010E943B
:101A9000F502EACF1F920F920FB60F9211242F93E7
:101AA0003F934F935F936F937F938F939F93AF93E6
:101AB000BF93EF93FF9385E493E00E949F03FF9110
:101AC000EF91BF91AF919F918F917F916F915F91B6
:101AD0004F913F912F910F900FBE0F901F9018952F
:101AE0001F920F920FB60F9211242F938F939F93F3
:101AF000EF93FF93E0915503F09156038081E091BD
:101B00005B03F0915C0382FD1BC0908180915E03BA
:101B10008F5F8F7320915F03821741F0E0915E0326
:101B2000F0E0EB5BFC4F958F80935E03FF91EF91AC
:101B30009F918F912F910F900FBE0F901F9018952E
:101B40008081F4CF1F920F920FB60F9211242F9322
:101B50003F934F935F936F937F938F939F93AF9335
:101B6000BF93CF93DF93EF93FF938091AA02C0912D
:101B70001204D0E087FF24C01092850010928400E8
:101B80008091AA028F5F8093AA028091AA02082EF8
:101B9000000C990B8C179D0724F48091AA028C30BD
:101BA000C4F18091840090918500049680349C4912
:101BB00008F47AC08091840090918500049676C0E4
:101BC0008091AA02082E000C990B8C179D07C4F671
:101BD000E091AA028E2FEE0F990BFC01EE0FFF1F72
:101BE000E80FF91FE251FC4F808186FFC9CFE091D9
:101BF000AA028E2FEE0F990BFC01EE0FFF1FE80FCC
:101C0000F91FE251FC4F808160E08F730E9428022F
:101C1000B7CF2091840030918500E091AA028E2FE9
:101C2000EE0F990BFC01EE0FFF1FE80FF91FE251B9
:101C3000FC4F81819281820F931F90938900809342
:101C40008800E091AA028E2FEE0F990BFC01EE0F97
:101C5000FF1FE80FF91FE251FC4F808186FF11C082
:101C6000E091AA028E2FEE0F990BFC01EE0FFF1FE1
:101C7000E80FF91FE251FC4F808161E08F730E94F1
:101C80002802FF91EF91DF91CF91BF91AF919F918A
:101C90008F917F916F915F914F913F912F910F9015
:101CA0000FBE0F901F90189580E49CE990938900D7
:101CB000809388008FEF8093AA02E3CF1F920F9248
:101CC0000FB60F9211242F933F934F935F936F930F
:101CD0007F938F939F93AF93BF93EF93FF938091E5
:101CE000B900887F803609F44AC0F0F5883209F4DB
:101CF000A7C018F5803109F49BC0B8F4882309F413
:101D0000F9C0883009F494C0FF91EF91BF91AF9171
:101D10009F918F917F916F915F914F913F912F9103
:101D20000F900FBE0F901F901895883109F488C04E
:101D3000803251F78093190314C0803409F49DC098
:101D400040F48033B9F38833F9F68093190385ECB6
:101D5000B0C0803509F485C0883509F496C0883450
:101D600099F60E946C0CD0CF883909F48CC038F5F4
:101D7000883729F050F4883611F0803729F683E04F
:101D800080931B031092A90257C0883809F47BC0C6
:101D9000803919F0803809F0B7CF8091A9028032DC
:101DA00008F071C0E091A90281E08E0F8093A90232
:101DB0008091BB00F0E0E757FD4F80833DC0803B42
:101DC00039F0E0F4803A09F479C0883A09F09CCF00
:101DD00084E080931B031092880210928702E091A6
:101DE000F102F091F20209958091870281110FC0F2
:101DF00081E0809387021092670209C0803C09F459
:101E0000A6CF883C09F4A3CF883B09F07DCFE091B1
:101E1000880281E08E0F80938802F0E0E959FD4F3F
:101E200080818093BB00909188028091870229C0B5
:101E30008091F6028093BB0085EC8093BC0064CF58
:101E40009091180380911703981758F5E0911803A3
:101E500081E08E0F80931803F0E0E950FD4F808100
:101E6000E9CFE091180381E08E0F809318038091F1
:101E7000BB00F0E0E950FD4F808390911803809102
:101E800017039817C8F285E8D8CFE091180381E0CE
:101E90008E0F809318038091BB00F0E0E950FD4F56
:101EA000808380911A0381115CCF81E08093F502D9
:101EB00084EA8093BC0010921B0326CF85EC8093AC
:101EC000BC0010921B038091A902803230F4E09193
:101ED000A902F0E0E757FD4F10826091A90270E07F
:101EE000E091EF02F091F00289E892E009951092FA
:101EF000A9020ACF1092190334CFFC0190819053AC
:101F00009A3008F090E0818180532AE0929F800D02
:101F100011240895CF93DF9300D0CDB7DEB78FE0C3
:101F20008A8321E041E050E0BE016E5F7F4F8091E7
:101F3000CD029091CE020E94510741E050E0BE01D7
:101F40006F5F7F4F8091CD029091CE020E948107FA
:101F500089810F900F90DF91CF91089510924803DF
:101F60001092470388EE93E0A0E0B0E0809349032D
:101F700090934A03A0934B03B0934C032FE231E0BC
:101F8000309346032093450325EC30E03093520311
:101F90002093510324EC30E03093540320935303F7
:101FA00020EC30E0309356032093550321EC30E0D1
:101FB000309358032093570322EC30E030935A03B8
:101FC0002093590326EC30E030935C0320935B03AD
:101FD00010925E0310925F031092600310926103EF
:101FE0001092E5031092E4038093E6039093E703D5
:101FF000A093E803B093E90381E491E09093E303B5
:102000008093E20310921E04109222041092210485
:102010001092230483E591E090931D0480931C04A7
:10202000E8E3F4E084E794E01082148213821582DE
:1020300036968E179F07C1F789E091E090937F0451
:1020400080937E0485E091E09093810480938004E6
:1020500084E080938204809383048DE091E09093E8
:102060007D0480937C048AE090E0909385048093C3
:10207000840484EF91E09093870480938604109207
:102080008A041092890410927804109279041092B4
:102090007A0410927B0410928804809112048C3090
:1020A00008F05FC091E0980F909312048093190498
:1020B00090E0FC01EE0FFF1FE80FF91FE251FC4F0B
:1020C00088EB9BE09283818310921804109217048E
:1020D0001092160410921304E8EDF0E081E08C30C9
:1020E00049F09491823009F49F5F21E0280F3196E6
:1020F0009923D9F18093140481E0809315048DE530
:1021000091E090938C0480938B0410929004109231
:102110009104109292041092930480E090E0A0E861
:10212000BFE38093940490939504A0939604B09396
:10213000970410929B0410929A0485E691E0909384
:102140009904809398041092A10487E280939C04E0
:1021500080E18093A20482E08093A3041092A404FF
:1021600008958FEF80931904AFCF822FB8CFCF930C
:10217000DF93CDB7DEB7A6970FB6F894DEBF0FBEDC
:10218000CDBF789484B5826084BD84B5816084BD00
:1021900085B5826085BD85B5816085BD80916E0005
:1021A000816080936E001092810080918100826036
:1021B0008093810080918100816080938100809173
:1021C00080008160809380008091B1008460809362
:1021D000B1008091B00081608093B00080917A005E
:1021E000846080937A0080917A00826080937A0084
:1021F00080917A00816080937A0080917A00806873
:1022000080937A001092C1000E949F000E94E50412
:1022100010929D048091A304823018F098E090936E
:102220009D048093A00462E370E080E090E00E944F
:10223000B7026091A40488E994E00E94B80668EEB1
:1022400073E080E090E00E94B70260E388E994E0E8
:102250000E94A6088BE4E82E86E4F82EC7010197B9
:10226000F1F760E388E994E00E94A608C7010197AE
:10227000F1F760E388E994E00E94A60883E592E024
:102280000197F1F760E288E994E00E94A608609166
:102290009D04606240E088E994E00E94BF0884E009
:1022A00080939E0440E06CE088E994E00E94BF08BF
:1022B0000E94070982E080939F0440E066E088E97D
:1022C00094E00E94BF0840E062E088E994E00E9448
:1022D000BF088BE39FE10197F1F788E08093A404A6
:1022E00060E088E994E00E94B8060E9407098091A6
:1022F000CD029091CE02009711F00E94921A86E0D2
:1023000090E00E94F6197C0188E6F701808382EE56
:1023100093E092838183138280E290E095838483AB
:10232000F092CE02E092CD020E94E50481E0F70136
:102330008383C7010E940D06882309F438C00E94D8
:102340008A0F90E0880F892F881F990B892B09F439
:10235000C0C04BE050E062E770E09E012F5F3F4F4E
:102360007901C9010E94D516CE010A960E947D0FFF
:10237000082FE981E154E33140F50E2E000CFF0BEC
:10238000EC53FE4E0C94D1188D13E511E511A113F9
:10239000E511A313E511E511E511DC11E511E511D6
:1023A00094139F139D13E511E511E5119B138FEA1B
:1023B00091E00E94DD09FBCF8A8111E0813629F08E
:1023C0008B8116E08E3609F017E0CE0105960E944B
:1023D0007D0FD82E48E050E069E670E0C7010E940A
:1023E000D516C7010E947D0FC82ECE0104960E940B
:1023F0007D0FB82ECE0107960E947D0F382F88E002
:10240000F70111928A95E9F72AE0832F622F0E9443
:10241000B118982F880F890F880F830F8A838B2D0F
:102420000E94B118982F880F890F880F8B0D8B830E
:102430008C2D0E94B118982F880F890F880F8C0D52
:102440008C834D2D612F802F90E00E942E040696E4
:1024500067E070E00E94BD18811101C087E08D83A4
:102460002AE08D2D622F0E94B118982F880F890FB6
:10247000880F8D0D8E83812F0E94B118982F990F90
:10248000890F880F180F1F83802F0E94B118982F73
:10249000880F890F880F800F888721E048E050E07F
:1024A000B7018091CD029091CE020E9451070E9407
:1024B0008A0F9FE0998B8F778A8B21E042E050E072
:1024C000BE016F5E7F4F8091CD029091CE020E943F
:1024D00051070E949F0081EC91E00E94DD0982E09B
:1024E00080938D0483E080938E0461E082E00E94FB
:1024F000560260E080918E040E94560281E0809333
:102500008F0480E090EEABEAB5E48093940490935E
:102510009504A0939604B09397041AE0C12CD12C93
:1025200076010E94F306C60ED71EE81EF91E60E073
:1025300070E0CB010E94B702115099F7C701B601B4
:102540002AE030E040E050E00E941718CA01B901CB
:102550000E94FA160E94B619609390047093910439
:10256000809392049093930482ED91E00E94DD09A0
:10257000809119048C3008F051C061E08CE00E9419
:10258000560280911904282F30E0F901EE0FFF1F49
:10259000E20FF31FE251FC4F9081907C9C6090838E
:1025A00010921A0410921B042CE0622F0E94B118A2
:1025B000829FB001112430E020E0AB01420F531F95
:1025C000FA01EE0FFF1FE40FF51FE251FC4F90815F
:1025D00096FD16C02F5F3F4F2C30310571F78111EA
:1025E0000FC01092800082E08093810010928500DD
:1025F00010928400B19A80916F00826080936F0086
:10260000E09119048E2F90E0FC01EE0FFF1FE80F00
:10261000F91FE251FC4F80818064808390E080E06C
:102620000E94C70060E08DE00E94560261E08EE0EB
:102630000E9456024CE3442E512C612C712C8DE0EB
:102640000E94FF01019709F051C28091B4028111EB
:102650002BC01092C8021092C7021092CA021092A8
:10266000C9021092CC021092CB0290E080E00E944E
:102670001F092091C7023091C802811166C021153F
:10268000310519F0C9010E94921A1092C8021092E5
:10269000C7021092CC021092CB021092CA02109282
:1026A000C90281E08093B40222242394312CF1E00A
:1026B000F09388048FB7F8944091C3025091C402FC
:1026C0006091C5027091C6028FBF8091780490918D
:1026D0007904A0917A04B0917B04481B590B6A0BD2
:1026E0007B0B8091840490918504B0E0A0E0841776
:1026F0009507A607B707D8F610E08091820418174F
:1027000070F5E0917E04F0917F04E10FF11D62E02D
:1027100080810E9456021F5FF0CF8B8114E08237C8
:1027200009F453CE18E051CE8B8113E0823709F4BF
:102730004CCE15E04ACE19E048CE1AE046CE1BE05A
:1027400044CE1CE042CE12E040CE1092CC02109259
:10275000CB026FE671E0C9010E94E11BA2CF912C70
:1027600080918304981608F063C0E92CF12CE09165
:102770008004F0918104EE0DFF1D61E080810E94D4
:102780005602E0918004F0918104EE0DFF1D60E09F
:1027900080810E94280281E090E0A0E0B0E0092C56
:1027A00004C0880F991FAA1FBB1F0A94D2F75C01AF
:1027B0006C01C094D094812C80918204881608F515
:1027C000082D10E0E0917E04F0917F04E00FF11FEE
:1027D00080810E94FF010C5F1F4F000F111FF80145
:1027E000E45EFB4F892B41F4808191818A299B29EA
:1027F000918380838394E0CF808191818C219D217E
:10280000F7CFE0918004F0918104EE0DFF1D61E0AF
:1028100080810E9428028091800490918104E80EBA
:10282000F91E60E0F70180810E945602939498CFD0
:102830001CE1E12E14E0F12E8701F801878D90A1B3
:10284000892B31F4148E2FEF3FEF368F258F11A295
:102850000A5F1F4F48E554E04017510771F7D12C2C
:1028600080918204D81608F053C0C12CAD2CB12C35
:10287000AA0CBB1CC5018C5D9B4F5C01209183049D
:10288000C21608F043C0F501608171810C2C02C0B2
:10289000769567950A94E2F7D29E900111242C0D4B
:1028A000311DECE1F4E080E0458D568D24173507AD
:1028B00009F452C28F5F36968A30B1F760FF24C0A8
:1028C000ECE1F4E090E080E0448D411118C0E0912B
:1028D0007C04F0917D04E20FF31F408156E0589F85
:1028E000F001599FF00D1124E45EFB4F448F368FA9
:1028F000258F10A2178E61E00E94660105C0019627
:1029000036968A30910501F7C394B8CFD394A8CFF7
:1029100080E0F70191A19111892FF6E0EF0EF11CF3
:102920000E151F05B1F79FB7F8944091C30250915F
:10293000C4026091C5027091C6029FBF40937804A3
:102940005093790460937A0470937B04882309F48C
:10295000AECE80913D04882309F4A9CE80913B043A
:1029600090913C04019709F0A2CE8091380488230D
:1029700009F49DCE90ED980F9A3008F041C08983FC
:102980001A820091CB021091CC020F5F1F4FC80139
:102990000E941F09882399F02091C7023091C80234
:1029A0008091CB029091CC02BE016F5F7F4F820F6E
:1029B000931F0E94E11B1093CC020093CB026CED9D
:1029C00071E08091C7029091C8020E94F8096FEEF1
:1029D00071E085E493E00E94F0094091CB025091B0
:1029E000CC026091C7027091C80285E493E00E9416
:1029F00021036DE671E085E493E00E944D0957CE16
:102A0000813481F58091B2029091B302892B09F053
:102A10004ECE8091C7029091C8020097F9F00E94B3
:102A2000AE1670930401609303010E94140A309261
:102A3000B3022092B2026FE671E087EF91E00E944C
:102A4000F80960E072E085E493E00E94F00980916B
:102A50000301909104010E94C30929CE60E070E057
:102A6000CB01DFCF823409F022CE8091B202909167
:102A7000B302019709F01BCE8091C7029091C80262
:102A8000009781F10E94AE167093020160930101DC
:102A90000E94140A81E08093BD021092B30210924A
:102AA000B2026FE671E08BE092E00E94F80966E105
:102AB00072E085E493E00E94F00980910101909119
:102AC00002010E94C3091092BC0280E090E0892BB1
:102AD00009F4B5CD0E948B03882309F4B0CD0E9480
:102AE0000000ADCD60E070E0CB01CECF1982E09068
:102AF000CD02F090CE0220E041E050E08E010F5F69
:102B00001F4FB801C7010E945107882331F047E0E9
:102B100050E0B801C7010E94810739813F77832FB8
:102B200090E024E0959587952A95E1F7982F990FE5
:102B3000990F282F291B220F230F3A81832F90E012
:102B400044E0959587954A95E1F7982F990F990F4D
:102B5000482F491B942F990F930F3B81432F50E02F
:102B600064E0559547956A95E1F7842F880F880FA3
:102B7000642F681B862F880F830F3D81EE81EF77CE
:102B80006F81462F50E074E0559547957A95E1F7AF
:102B9000542F550F550F451B440F460F49A36E2F59
:102BA00070E0F4E075956795FA95E1F7462F440FCC
:102BB000440F641B660F6E0F6AA3432F50E0A4E01E
:102BC00055954795AA95E1F7542F550F550F451B7D
:102BD000440F430F4BA38CA39DA32EA31F922F93AF
:102BE0001F929F931F928F9383E292E09F938F9304
:102BF0007E0181E1E80EF11CFF92EF920E94E81B3A
:102C000089A190E08053984F9F938F938AA11F9240
:102C10008F938BA11F928F9382E392E09F938F9368
:102C20001F930F930E94E81BB801C7010E94F80987
:102C300064E572E085E493E00E94F009C7010E9418
:102C4000DD0961E472E085E493E00E94F009C801C7
:102C50000E94DD090FB6F894DEBF0FBECDBF809194
:102C6000BD02882309F443C068E472E085E493E080
:102C70000E94F0096091030170910401072E000C7D
:102C8000880B990B97FF3AC00E94A2096AED71E088
:102C900085E493E00E94F009809101019091020186
:102CA0000E94C3098091BC0281112CC02CA180918B
:102CB00003019091040128171906C9F42DA18091F0
:102CC0000101909102012817190689F48EA1811142
:102CD0000EC00E943C0A86E0FE01B196A3E1B4E07A
:102CE00001900D928A95E1F781E08093BC0268EE35
:102CF00073E080E090E00E94B702E7CE4AE00E94D5
:102D00005C09C4CFCE0181960E945A046B017C01FC
:102D100083E194E00E945A04A7019601261B370B19
:102D2000480B590BCA01B901A30192010E9417185F
:102D3000CA01B901A30192010E9417186E31BCF2B9
:102D40000E943C0A86E0FE01B196A3E1B4E0019046
:102D50000D928A95E1F7CBCF6170CECD1F93FC0128
:102D600099278827BC01E89411911032E9F31930B2
:102D700010F01E30C8F31B3251F01D3249F4689434
:102D800006C00E94DE16610F711D811D911D1191FB
:102D900010531A30B0F33EF490958095709561957C
:102DA0007F4F8F4F9F4F1F910895FB01DC0102C0A1
:102DB00005900D9241505040D8F70895592F482F53
:102DC000372F262F660F771F881F991F660F771FD3
:102DD000881F991F620F731F841F951F660F771F2F
:102DE000881F991F08950E94351708F481E00895FF
:102DF000E89409C097FB3EF4909580957095619595
:102E00007F4F8F4F9F4F9923A9F0F92F96E9BB274A
:102E10009395F695879577956795B795F111F8CFC6
:102E2000FAF4BB0F11F460FF1BC06F5F7F4F8F4F31
:102E30009F4F16C0882311F096E911C0772321F027
:102E40009EE8872F762F05C0662371F096E8862FBF
:102E500070E060E02AF09A95660F771F881FDAF716
:102E6000880F9695879597F90895990F0008550F43
:102E7000AA0BE0E8FEEF16161706E807F907C0F000
:102E800012161306E407F50798F0621B730B840B08
:102E9000950B39F40A2661F0232B242B252B21F4E2
:102EA00008950A2609F4A140A6958FEF811D811D82
:102EB00008950E946C170C94DD170E94CF1738F00C
:102EC0000E94D61720F0952311F00C94C6170C948D
:102ED000CC1711240C9411180E94EE1770F3959FD3
:102EE000C1F3950F50E0551F629FF001729FBB2701
:102EF000F00DB11D639FAA27F00DB11DAA1F649F9D
:102F00006627B00DA11D661F829F2227B00DA11D4F
:102F1000621F739FB00DA11D621F839FA00D611DD5
:102F2000221F749F3327A00D611D231F849F600DF6
:102F3000211D822F762F6A2F11249F5750409AF01F
:102F4000F1F088234AF0EE0FFF1FBB1F661F771FAB
:102F5000881F91505040A9F79E3F510580F00C9476
:102F6000C6170C9411185F3FE4F3983ED4F386958E
:102F700077956795B795F795E7959F5FC1F7FE2B16
:102F8000880F911D9695879597F9089597F99F67F2
:102F900080E870E060E008959FEF80EC08950024E1
:102FA0000A941616170618060906089500240A94AE
:102FB00012161306140605060895092E0394000C34
:102FC00011F4882352F0BB0F40F4BF2B11F460FFC3
:102FD00004C06F5F7F4F8F4F9F4F089557FD9058EC
:102FE000440F551F59F05F3F71F04795880F97FBCD
:102FF000991F61F09F3F79F0879508951216130687
:103000001406551FF2CF4695F1DF08C016161706B5
:103010001806991FF1CF86957105610508940895EA
:10302000E894BB2766277727CB0197F90895052EEB
:1030300097FB1EF400940E942E1857FD07D00E94A3
:10304000801807FC03D04EF40C942E185095409530
:10305000309521953F4F4F4F5F4F08959095809544
:10306000709561957F4F8F4F9F4F08950E94A218D2
:10307000A59F900DB49F900DA49F800D911D1124CC
:103080000895B7FF0C9436180E943618821B930BD4
:1030900008952F923F924F925F926F927F928F92FC
:1030A0009F92AF92BF92CF92DF92EF92FF920F93D7
:1030B0001F93CF93DF93CDB7DEB7CA1BDB0B0FB6E1
:1030C000F894DEBF0FBECDBF09942A88398848889E
:1030D0005F846E847D848C849B84AA84B984C88434
:1030E000DF80EE80FD800C811B81AA81B981CE0F2B
:1030F000D11D0FB6F894DEBF0FBECDBFED01089510
:10310000A1E21A2EAA1BBB1BFD010DC0AA1FBB1FEB
:10311000EE1FFF1FA217B307E407F50720F0A21B5D
:10312000B30BE40BF50B661F771F881F991F1A94CA
:1031300069F760957095809590959B01AC01BD01F4
:10314000CF010895A29FB001B39FC001A39F700D4E
:10315000811D1124911DB29F700D811D1124911D9F
:103160000895991B79E004C0991F961708F0961BE3
:10317000881F7A95C9F780950895AA1BBB1B51E15A
:1031800007C0AA1FBB1FA617B70710F0A61BB70BD7
:10319000881F991F5A95A9F780959095BC01CD017C
:1031A0000895EE0FFF1F0590F491E02D09945058FB
:1031B000BB27AA270E94EF180C94DD170E94CF1797
:1031C00038F00E94D61720F039F49F3F19F426F406
:1031D0000C94CC170EF4E095E7FB0C94C617E92F7E
:1031E0000E94EE1758F3BA17620773078407950712
:1031F00020F079F4A6F50C9410180EF4E0950B2E3F
:10320000BA2FA02D0B01B90190010C01CA01A00138
:103210001124FF27591B99F0593F50F4503E68F193
:103220001A16F040A22F232F342F4427585FF3CFD4
:10323000469537952795A795F0405395C9F77EF4A5
:103240001F16BA0B620B730B840BBAF09150A1F0EE
:10325000FF0FBB1F661F771F881FC2F70EC0BA0F74
:10326000621F731F841F48F4879577956795B795FC
:10327000F7959E3F08F0B0CF9395880F08F09927F7
:10328000EE0F9795879508950E9458190C94DD17B5
:103290000E94D61758F00E94CF1740F029F45F3FE4
:1032A00029F00C94C61751110C9411180C94CC17DA
:1032B0000E94EE1768F39923B1F3552391F3951B00
:1032C000550BBB27AA2762177307840738F09F5F47
:1032D0005F4F220F331F441FAA1FA9F335D00E2EB4
:1032E0003AF0E0E832D091505040E695001CCAF721
:1032F0002BD0FE2F29D0660F771F881FBB1F2617E4
:1033000037074807AB07B0E809F0BB0B802DBF01BA
:10331000FF2793585F4F3AF09E3F510578F00C9489
:10332000C6170C9411185F3FE4F3983ED4F38695CA
:1033300077956795B795F7959F5FC9F7880F911DAA
:103340009695879597F90895E1E0660F771F881F96
:10335000BB1F621773078407BA0720F0621B730B49
:10336000840BBA0BEE1F88F7E09508950E94BD19F3
:103370006894B1110C94111808950E94F61788F002
:103380009F5798F0B92F9927B751B0F0E1F0660F29
:10339000771F881F991F1AF0BA95C9F714C0B1306A
:1033A00091F00E941018B1E008950C941018672F46
:1033B000782F8827B85F39F0B93FCCF38695779599
:1033C0006795B395D9F73EF4909580957095619582
:1033D0007F4F8F4F9F4F08950E94351708F48FEF4E
:1033E00008950E943517880B990B08950F931F932A
:1033F000CF93DF938230910510F482E090E0E0916A
:10340000A704F091A80430E020E0B0E0A0E03097FD
:1034100099F42115310509F44AC0281B390B2430D1
:103420003105D8F58A819B816115710589F1FB0110
:1034300093838283FE0111C04081518102811381F7
:1034400048175907E0F04817590799F4109761F0A9
:1034500012960C93129713961C933296CF01DF911C
:10346000CF911F910F9108950093A7041093A80482
:10347000F4CF2115310551F04217530738F0A90157
:10348000DB019A01BD01DF01F801C1CFEF01F9CFE6
:103490009093A8048093A704CDCFFE01E20FF31F01
:1034A000819391932250310939832883D7CF20917A
:1034B000A5043091A604232B41F420911F013091E3
:1034C00020013093A6042093A50420911D01309182
:1034D0001E012115310541F42DB73EB74091210160
:1034E00050912201241B350BE091A504F091A60414
:1034F000E217F307A0F42E1B3F0B2817390778F0CB
:10350000AC014E5F5F4F2417350748F04E0F5F1F29
:103510005093A6044093A504819391939FCFF0E02C
:10352000E0E09CCFCF93DF930097E9F0FC01329766
:1035300013821282A091A704B091A804ED0130E09B
:1035400020E01097A1F420813181820F931F2091F8
:10355000A5043091A6042817390709F061C0F0933B
:10356000A604E093A504DF91CF910895EA01CE1758
:10357000DF07E8F54A815B819E0141155105B1F7EE
:10358000E901FB83EA8349915991C40FD51FEC17D8
:10359000FD0761F4808191810296840F951FE901F6
:1035A00099838883828193819B838A83F0E0E0E022
:1035B00012968D919C9113970097B9F52D913C919E
:1035C0001197CD010296820F931F2091A50430918F
:1035D000A6042817390739F6309751F51092A80438
:1035E0001092A704B093A604A093A504BCCFD383E4
:1035F000C28340815181840F951FC817D90761F498
:103600004E5F5F4F88819981480F591F51834083D6
:103610008A819B81938382832115310509F0B0CF84
:10362000F093A804E093A7049ECFFD01DC01C0CF76
:1036300013821282D7CFB0E0A0E0E1E2FBE10C946C
:103640004B188C01009751F4CB010E94F6198C01A4
:10365000C801CDB7DEB7E0E10C946718FC01E60FB6
:10366000F71F9C0122503109E217F30708F49DC0AF
:10367000D901CD91DC911197C617D70798F0C530C5
:10368000D10530F3CE0104978617970708F3C61BC0
:10369000D70B2297C193D1936D937C93CF010E9456
:1036A000921AD6CF5B01AC1ABD0A4C018C0E9D1E3E
:1036B000A091A704B091A804512C412CF12CE12C2D
:1036C000109731F58091A5049091A604881599056D
:1036D00009F05CC04616570608F058C080911D01DD
:1036E00090911E01009741F48DB79EB74091210142
:1036F00050912201841B950BE817F90708F055C07B
:10370000F093A604E093A504F90171836083A0CF30
:103710008D919C91119712966C90129713967C90B4
:103720001397A815B90559F56C0142E0C40ED11CD8
:10373000CA14DB0420F1AC014A195B09DA011296C4
:10374000159780F06282738251834083D9016D9313
:103750007C93E114F10471F0D7011396FC93EE937E
:10376000129776CF22968C0F9D1FF901918380834B
:10377000F301EFCFF093A804E093A70469CF4816B4
:10378000590608F42C017D01D3019ACFCB010E9488
:10379000F6197C01009749F0AE01B8010E94D81BD0
:1037A000C8010E94921A870153CF10E000E050CF69
:1037B000FB01DC0102C001900D9241505040D8F74E
:1037C0000895FB01DC0101900D920020E1F70895BE
:1037D000AEE0B0E0EEEEFBE10C9457180D891E89C7
:1037E00086E08C831A8309838FEF9FE79E838D8306
:1037F000AE01475E5F4F6F89788DCE0101960E94C2
:103800000B1C2F813885020F131FF80110822E9692
:10381000E4E00C947318ABE0B0E0E1E1FCE10C945F
:1038200049187C013B018A01FC01178216828381C1
:1038300081FFC8C1CE0101965C01F7019381F301BC
:1038400093FD859193FF81913F01882309F453C132
:10385000853239F493FD859193FF81913F01853243
:1038600029F4B70190E00E94FB1DE7CF912C212C99
:10387000312CFFE1F31538F08B3211F190F48032E6
:1038800009F1833229F137FC3CC020ED280F2A30A2
:1038900050F536FE20C08AE0989E200D1124922E0D
:1038A00006C08D3291F0803371F7689430F8F301DF
:1038B00093FD859193FF81913F018111DACF21C062
:1038C000689431F8689432F8F2CF689433F8EFCF07
:1038D000689434F8ECCFEAE02E9E200D1124222EBD
:1038E000689435F8E4CF8E3229F436FC04C168942C
:1038F00036F8DDCF8C3619F4689437F8D8CF88368F
:10390000B1F2982F9F7D95549330E0F08336A1F16A
:103910008337C1F1833509F063C02801F2E04F0E0F
:10392000511CF801C080D180692D70E036FC02C0C6
:103930006FEF7FEFC6010E94E51D4C01689437F8D8
:1039400082010AC00C5F1F4FFFE3F9838824839430
:10395000912C6501E89437F833FE2DC0522C811468
:10396000910471F5552009F468CFB70180E290E029
:103970000E94FB1D5A94F6CFF801808189830E5F67
:103980001F4FE4CF2801F2E04F0E511CF801C08018
:10399000D180692D70E036FC02C06FEF7FEFC60169
:1039A0000E94F01D4C018201D5CFB70180E290E06A
:1039B0000E94FB1D2A942814190409F0B0F7CECFF9
:1039C000F60137FC859137FE81916F01B70190E0D8
:1039D0000E94FB1D51105A94F1E08F1A9108BFCF3D
:1039E000843619F0893609F077C0F80137FE6BC0CC
:1039F00060817181828193810C5F1F4FF32DFF766F
:103A00003F2E97FF09C090958095709561957F4FE7
:103A10008F4F9F4F689437F82AE030E0A5010E944D
:103A20002B1EC82ECA188C2C432C36FE0CC0E894D2
:103A300040F8C91440F434FE05C032FC03C0F32D35
:103A4000FE7E4F2E892C44FE95C0FE01EC0DF11D2B
:103A50008081803309F087C0242D297E422E842D59
:103A60008870582E43FC95C040FE8FC09C2C821459
:103A700018F42C0C922C981844FE91C0B70180E3E6
:103A800090E00E94FB1D42FE09C088E790E041FEE5
:103A900002C088E590E0B7010E94FB1DC91408F43C
:103AA0008AC0CA94D12C9FEFC91AD90ACA0CDB1C50
:103AB000F60182916F01B70190E00E94FB1DAC14EA
:103AC000BD04B1F74FCF60817181072E000C880BC8
:103AD000990B0E5F1F4F92CFD32CE894D4F82AE0B5
:103AE00030E0853739F1232D297FD22E8F3601F131
:103AF00048F48835A9F0F701868197812B96E2E199
:103B00000C946518803749F08837A9F7D4FE02C0B5
:103B10006894D2F820E130E00DC06894D4F8F6CF74
:103B200034FE03C0822F8660D82E20E132E002C02E
:103B300028E030E0F801D7FE0FC0608171818281FA
:103B400093810C5F1F4FA5010E942B1EC82ECA181F
:103B50003D2CE89437F867CF6081718190E080E078
:103B60000E5F1F4FF0CF42FC02C0839478CF839446
:103B7000839475CF842D867809F471CFF6CFB70181
:103B800080E290E00E94FB1D83948214C0F3512CCC
:103B900073CF522C5818821408F46ECFF8CF842DAE
:103BA000867809F47BCF8BE241FE80E247FC8DE210
:103BB000B70190E071CFB70180E390E00E94FB1D58
:103BC0009A946CCF8FEF9FEF99CFFC0105906150D5
:103BD00070400110D8F7809590958E0F9F1F089523
:103BE000FC016150704001900110D8F780959095CC
:103BF0008E0F9F1F08950F931F93CF93DF93182F5E
:103C0000092FEB018B8181FD09C01FEF0FEF812F81
:103C1000902FDF91CF911F910F91089582FF14C0D3
:103C20002E813F818C819D81281739073CF4E881E2
:103C3000F981CF0101969983888310838E819F81BA
:103C400001969F838E83E3CFE885F985812F0995BF
:103C5000892BA1F3DACFFA01AA27283051F12031BC
:103C600081F1E8946F936E7F6E5F7F4F8F4F9F4F10
:103C7000AF4FB1E03ED0B4E03CD0670F781F891F52
:103C80009A1FA11D680F791F8A1F911DA11D6A0F20
:103C9000711D811D911DA11D20D009F468943F91D3
:103CA0002AE0269F11243019305D3193DEF6CF01D2
:103CB0000895462F4770405D4193B3E00FD0C9F798
:103CC000F6CF462F4F70405D4A3318F0495D31FD05
:103CD0004052419302D0A9F7EACFB4E0A695979558
:103CE000879577956795BA95C9F70097610571052E
:103CF00008959B01AC010A2E069457954795379578
:103D00002795BA95C9F7620F731F841F951FA01DD1
:063D10000895F894FFCFB6
:103D1600FFFFFFFFFF08090A0B04050607313233D0
:103D26004134353642373839432A3023440000A916
:103D3600048000000040001400540000000000C190
:103D46000321034E030E047F035D0371030000008D
:103D56000089065C06CC0632065506420633060086
:103D6600000000EA02EE02F202000000009E043AA1
:103D76000A0000000019092103CC069F040D0A0061
:103D86005765696768743A20006E616E00696E66F1
:103D9600006F7666005765696768743A20252E328B
:103DA60066206B670046656564696E6720646F6EA2
:103DB600650052657475726E696E672E2E2E00430D
:103DC6006F756C646E27742066696E642052544366
:103DD600004858373131207363616C652064656D26
:103DE6006F0052656164696E67733A00456E74656B
:103DF600722066656564696E672074696D65004941
:103E06006E7075743A2000486F7572207365740081
:103E1600486F7572207365743A20004D696E75742B
:103E26006520736574004D696E75746520736574DD
:103E36003A2000253032643A253032643A25303251
:103E46006400253032642F253032642F25303464E7
:103E560000446174653A20005365742046656564C4
:0C3E6600696E672054696D653A20000009
:00000001FF
